{"abi":[{"type":"function","name":"post","inputs":[{"name":"input","type":"bytes","internalType":"bytes"}],"outputs":[],"stateMutability":"nonpayable"},{"type":"function","name":"postBatch","inputs":[{"name":"inputs","type":"bytes[]","internalType":"bytes[]"}],"outputs":[],"stateMutability":"nonpayable"},{"type":"event","name":"Post","inputs":[{"name":"sender","type":"address","indexed":true,"internalType":"address"}],"anonymous":false}],"bytecode":{"object":"0x608060405234801561001057600080fd5b506101f8806100206000396000f3fe608060405234801561001057600080fd5b50600436106100365760003560e01c8063baf9b3691461003b578063ce67e4c914610050575b600080fd5b61004e6100493660046100ed565b610063565b005b61004e61005e36600461015f565b610092565b60405133907f2a45a39af27d4900e3d519672585c9b4b79628bba59e45a6dc6cc1db6d92a3ef90600090a25050565b3360005b828110156100e75760405173ffffffffffffffffffffffffffffffffffffffff8316907f2a45a39af27d4900e3d519672585c9b4b79628bba59e45a6dc6cc1db6d92a3ef90600090a2600101610096565b50505050565b6000806020838503121561010057600080fd5b823567ffffffffffffffff8082111561011857600080fd5b818501915085601f83011261012c57600080fd5b81358181111561013b57600080fd5b86602082850101111561014d57600080fd5b60209290920196919550909350505050565b6000806020838503121561017257600080fd5b823567ffffffffffffffff8082111561018a57600080fd5b818501915085601f83011261019e57600080fd5b8135818111156101ad57600080fd5b8660208260051b850101111561014d57600080fdfea2646970667358221220e216d1b8595b88a358772a4f77910457f62b170b24c0d267137d359d82a7500464736f6c63430008170033","linkReferences":{}},"methodIdentifiers":{"post(bytes)":"baf9b369","postBatch(bytes[])":"ce67e4c9"},"id":22}