{"abi":[{"type":"constructor","inputs":[{"name":"trustedForwarder","type":"address","internalType":"address"}],"stateMutability":"nonpayable"},{"type":"function","name":"exportAddItemStruct","inputs":[],"outputs":[{"name":"addItem","type":"tuple","internalType":"struct IPostGateway2.AddItem","components":[{"name":"itemCid","type":"string","internalType":"string"},{"name":"channelCid","type":"string","internalType":"string"}]}],"stateMutability":"pure"},{"type":"function","name":"exportChannelStruct","inputs":[],"outputs":[{"name":"channel","type":"tuple","internalType":"struct IPostGateway2.Channel","components":[{"name":"data","type":"tuple","internalType":"struct IPostGateway2.ChannelData","components":[{"name":"dataType","type":"uint8","internalType":"enum IPostGateway2.ChannelDataTypes"},{"name":"contents","type":"bytes","internalType":"bytes"}]},{"name":"access","type":"tuple","internalType":"struct IPostGateway2.ChannelAccess","components":[{"name":"accessType","type":"uint8","internalType":"enum IPostGateway2.ChannelAccessTypes"},{"name":"contents","type":"bytes","internalType":"bytes"}]}]}],"stateMutability":"pure"},{"type":"function","name":"exportItemStruct","inputs":[],"outputs":[{"name":"item","type":"tuple","internalType":"struct IPostGateway2.Item","components":[{"name":"data","type":"tuple","internalType":"struct IPostGateway2.ItemData","components":[{"name":"dataType","type":"uint8","internalType":"enum IPostGateway2.ItemDataTypes"},{"name":"contents","type":"bytes","internalType":"bytes"}]},{"name":"access","type":"tuple","internalType":"struct IPostGateway2.ItemAccess","components":[{"name":"accessType","type":"uint8","internalType":"enum IPostGateway2.ItemAccessTypes"},{"name":"contents","type":"bytes","internalType":"bytes"}]}]}],"stateMutability":"pure"},{"type":"function","name":"isTrustedForwarder","inputs":[{"name":"forwarder","type":"address","internalType":"address"}],"outputs":[{"name":"","type":"bool","internalType":"bool"}],"stateMutability":"view"},{"type":"function","name":"post","inputs":[{"name":"input","type":"tuple","internalType":"struct IPostGateway2.Post","components":[{"name":"signer","type":"address","internalType":"address"},{"name":"message","type":"tuple","internalType":"struct IPostGateway2.Message","components":[{"name":"rid","type":"uint256","internalType":"uint256"},{"name":"timestamp","type":"uint256","internalType":"uint256"},{"name":"msgType","type":"uint8","internalType":"enum IPostGateway2.MessageTypes"},{"name":"msgBody","type":"bytes","internalType":"bytes"}]},{"name":"hashType","type":"uint16","internalType":"uint16"},{"name":"hash","type":"bytes32","internalType":"bytes32"},{"name":"sigType","type":"uint16","internalType":"uint16"},{"name":"sig","type":"bytes","internalType":"bytes"}]}],"outputs":[],"stateMutability":"nonpayable"},{"type":"function","name":"postBatch","inputs":[{"name":"inputs","type":"tuple[]","internalType":"struct IPostGateway2.Post[]","components":[{"name":"signer","type":"address","internalType":"address"},{"name":"message","type":"tuple","internalType":"struct IPostGateway2.Message","components":[{"name":"rid","type":"uint256","internalType":"uint256"},{"name":"timestamp","type":"uint256","internalType":"uint256"},{"name":"msgType","type":"uint8","internalType":"enum IPostGateway2.MessageTypes"},{"name":"msgBody","type":"bytes","internalType":"bytes"}]},{"name":"hashType","type":"uint16","internalType":"uint16"},{"name":"hash","type":"bytes32","internalType":"bytes32"},{"name":"sigType","type":"uint16","internalType":"uint16"},{"name":"sig","type":"bytes","internalType":"bytes"}]}],"outputs":[],"stateMutability":"nonpayable"},{"type":"function","name":"trustedForwarder","inputs":[],"outputs":[{"name":"","type":"address","internalType":"address"}],"stateMutability":"view"},{"type":"event","name":"NewPost","inputs":[{"name":"sender","type":"address","indexed":true,"internalType":"address"},{"name":"post","type":"tuple","indexed":false,"internalType":"struct IPostGateway2.Post","components":[{"name":"signer","type":"address","internalType":"address"},{"name":"message","type":"tuple","internalType":"struct IPostGateway2.Message","components":[{"name":"rid","type":"uint256","internalType":"uint256"},{"name":"timestamp","type":"uint256","internalType":"uint256"},{"name":"msgType","type":"uint8","internalType":"enum IPostGateway2.MessageTypes"},{"name":"msgBody","type":"bytes","internalType":"bytes"}]},{"name":"hashType","type":"uint16","internalType":"uint16"},{"name":"hash","type":"bytes32","internalType":"bytes32"},{"name":"sigType","type":"uint16","internalType":"uint16"},{"name":"sig","type":"bytes","internalType":"bytes"}]}],"anonymous":false}],"bytecode":{"object":"0x60a060405234801561001057600080fd5b5060405161086c38038061086c83398101604081905261002f91610040565b6001600160a01b0316608052610070565b60006020828403121561005257600080fd5b81516001600160a01b038116811461006957600080fd5b9392505050565b6080516107db6100916000396000818160a7015261011301526107db6000f3fe608060405234801561001057600080fd5b506004361061007d5760003560e01c80638d320c6b1161005b5780638d320c6b1461013d578063caa550b414610152578063df4172d41461013d578063eb571ca41461016557600080fd5b80633e26eb8314610082578063572b6c05146100975780637da0a877146100f9575b600080fd5b6100956100903660046102ab565b610184565b005b6100e46100a5366004610316565b7f000000000000000000000000000000000000000000000000000000000000000073ffffffffffffffffffffffffffffffffffffffff90811691161490565b60405190151581526020015b60405180910390f35b60405173ffffffffffffffffffffffffffffffffffffffff7f00000000000000000000000000000000000000000000000000000000000000001681526020016100f0565b6101456101d5565b6040516100f091906103cf565b610095610160366004610463565b6101e0565b6040805180820182526060808252602082015290516100f091906104d8565b3373ffffffffffffffffffffffffffffffffffffffff167f6a90bbc483a98cd6b27a672c78c669dbb8d17463badd8b886df380a98a970fb2826040516101ca9190610647565b60405180910390a250565b6101dd61026b565b90565b3360005b82811015610265578173ffffffffffffffffffffffffffffffffffffffff167f6a90bbc483a98cd6b27a672c78c669dbb8d17463badd8b886df380a98a970fb285858481811061023657610236610738565b90506020028101906102489190610767565b6040516102559190610647565b60405180910390a26001016101e4565b50505050565b60408051608081018252600091810191825260608082015290819081526020016102a660408051808201909152600081526060602082015290565b905290565b6000602082840312156102bd57600080fd5b813567ffffffffffffffff8111156102d457600080fd5b820160c081850312156102e657600080fd5b9392505050565b803573ffffffffffffffffffffffffffffffffffffffff8116811461031157600080fd5b919050565b60006020828403121561032857600080fd5b6102e6826102ed565b60028110610368577f4e487b7100000000000000000000000000000000000000000000000000000000600052602160045260246000fd5b50565b6000815180845260005b8181101561039157602081850181015186830182015201610375565b5060006020828601015260207fffffffffffffffffffffffffffffffffffffffffffffffffffffffffffffffe0601f83011685010191505092915050565b60006020808352835160408285015280516103e981610331565b60608501528101516040608085015261040560a085018261036b565b9050818501517fffffffffffffffffffffffffffffffffffffffffffffffffffffffffffffffe0858303016040860152805161044081610331565b825282015160408383018190526104599083018261036b565b9695505050505050565b6000806020838503121561047657600080fd5b823567ffffffffffffffff8082111561048e57600080fd5b818501915085601f8301126104a257600080fd5b8135818111156104b157600080fd5b8660208260051b85010111156104c657600080fd5b60209290920196919550909350505050565b6020815260008251604060208401526104f4606084018261036b565b905060208401517fffffffffffffffffffffffffffffffffffffffffffffffffffffffffffffffe084830301604085015261052f828261036b565b95945050505050565b60008083357fffffffffffffffffffffffffffffffffffffffffffffffffffffffffffffffe184360301811261056d57600080fd5b830160208101925035905067ffffffffffffffff81111561058d57600080fd5b80360382131561059c57600080fd5b9250929050565b8183528181602085013750600060208284010152600060207fffffffffffffffffffffffffffffffffffffffffffffffffffffffffffffffe0601f840116840101905092915050565b8035825260208101356020830152600060408201356007811061060e57600080fd5b60408401526106206060830183610538565b6080606086015261052f6080860182846105a3565b803561ffff8116811461031157600080fd5b6020815273ffffffffffffffffffffffffffffffffffffffff610669836102ed565b166020820152600060208301357fffffffffffffffffffffffffffffffffffffffffffffffffffffffffffffff818436030181126106a657600080fd5b60c060408401526106bc60e084018583016105ec565b90506106ca60408501610635565b61ffff8116606085015250606084013560808401526106eb60808501610635565b61ffff811660a08501525061070360a0850185610538565b7fffffffffffffffffffffffffffffffffffffffffffffffffffffffffffffffe08584030160c08601526104598382846105a3565b7f4e487b7100000000000000000000000000000000000000000000000000000000600052603260045260246000fd5b600082357fffffffffffffffffffffffffffffffffffffffffffffffffffffffffffffff4183360301811261079b57600080fd5b919091019291505056fea26469706673582212203ba8a36197a8e9323008f660e1fa12336c7660c43b4e7da164b50a039be3ff5164736f6c63430008170033","linkReferences":{}},"methodIdentifiers":{"exportAddItemStruct()":"eb571ca4","exportChannelStruct()":"8d320c6b","exportItemStruct()":"df4172d4","isTrustedForwarder(address)":"572b6c05","post((address,(uint256,uint256,uint8,bytes),uint16,bytes32,uint16,bytes))":"3e26eb83","postBatch((address,(uint256,uint256,uint8,bytes),uint16,bytes32,uint16,bytes)[])":"caa550b4","trustedForwarder()":"7da0a877"},"id":53}