{"abi":[{"type":"constructor","inputs":[{"name":"_idRegistry","type":"address","internalType":"address"},{"name":"_delegateRegistry","type":"address","internalType":"address"}],"stateMutability":"nonpayable"},{"type":"function","name":"CHANNEL_SALT","inputs":[],"outputs":[{"name":"","type":"bytes32","internalType":"bytes32"}],"stateMutability":"view"},{"type":"function","name":"ITEM_SALT","inputs":[],"outputs":[{"name":"","type":"bytes32","internalType":"bytes32"}],"stateMutability":"view"},{"type":"function","name":"NEW_CHANNEL_TYPEHASH","inputs":[],"outputs":[{"name":"","type":"bytes32","internalType":"bytes32"}],"stateMutability":"view"},{"type":"function","name":"UPDATE_CHANNEL_DATA_TYPEHASH","inputs":[],"outputs":[{"name":"","type":"bytes32","internalType":"bytes32"}],"stateMutability":"view"},{"type":"function","name":"UPDATE_CHANNEL_LOGIC_TYPEHASH","inputs":[],"outputs":[{"name":"","type":"bytes32","internalType":"bytes32"}],"stateMutability":"view"},{"type":"function","name":"channelCountForUser","inputs":[{"name":"userId","type":"uint256","internalType":"uint256"}],"outputs":[{"name":"channelId","type":"uint256","internalType":"uint256"}],"stateMutability":"view"},{"type":"function","name":"channelUri","inputs":[{"name":"channelId","type":"bytes32","internalType":"bytes32"}],"outputs":[{"name":"uri","type":"string","internalType":"string"}],"stateMutability":"view"},{"type":"function","name":"dataForChannel","inputs":[{"name":"channelId","type":"bytes32","internalType":"bytes32"}],"outputs":[{"name":"pointer","type":"address","internalType":"address"}],"stateMutability":"view"},{"type":"function","name":"delegateRegistry","inputs":[],"outputs":[{"name":"","type":"address","internalType":"contract DelegateRegistry"}],"stateMutability":"view"},{"type":"function","name":"domainSeparatorV4","inputs":[],"outputs":[{"name":"","type":"bytes32","internalType":"bytes32"}],"stateMutability":"view"},{"type":"function","name":"eip712Domain","inputs":[],"outputs":[{"name":"fields","type":"bytes1","internalType":"bytes1"},{"name":"name","type":"string","internalType":"string"},{"name":"version","type":"string","internalType":"string"},{"name":"chainId","type":"uint256","internalType":"uint256"},{"name":"verifyingContract","type":"address","internalType":"address"},{"name":"salt","type":"bytes32","internalType":"bytes32"},{"name":"extensions","type":"uint256[]","internalType":"uint256[]"}],"stateMutability":"view"},{"type":"function","name":"generateChanneHash","inputs":[{"name":"userId","type":"uint256","internalType":"uint256"},{"name":"channelId","type":"uint256","internalType":"uint256"}],"outputs":[{"name":"","type":"bytes32","internalType":"bytes32"}],"stateMutability":"pure"},{"type":"function","name":"getAccess","inputs":[{"name":"userId","type":"uint256","internalType":"uint256"},{"name":"channelId","type":"bytes32","internalType":"bytes32"},{"name":"access","type":"uint256","internalType":"uint256"}],"outputs":[{"name":"role","type":"uint256","internalType":"uint256"}],"stateMutability":"view"},{"type":"function","name":"hashTypedDataV4","inputs":[{"name":"structHash","type":"bytes32","internalType":"bytes32"}],"outputs":[{"name":"","type":"bytes32","internalType":"bytes32"}],"stateMutability":"view"},{"type":"function","name":"idRegistry","inputs":[],"outputs":[{"name":"","type":"address","internalType":"contract IdRegistry"}],"stateMutability":"view"},{"type":"function","name":"logicForChannel","inputs":[{"name":"channelId","type":"bytes32","internalType":"bytes32"}],"outputs":[{"name":"logic","type":"address","internalType":"address"}],"stateMutability":"view"},{"type":"function","name":"newChannel","inputs":[{"name":"userId","type":"uint256","internalType":"uint256"},{"name":"data","type":"bytes","internalType":"bytes"},{"name":"logic","type":"address","internalType":"address"},{"name":"logicInit","type":"bytes","internalType":"bytes"}],"outputs":[{"name":"channelId","type":"bytes32","internalType":"bytes32"},{"name":"pointer","type":"address","internalType":"address"}],"stateMutability":"nonpayable"},{"type":"function","name":"newChannelFor","inputs":[{"name":"signer","type":"address","internalType":"address"},{"name":"userId","type":"uint256","internalType":"uint256"},{"name":"data","type":"bytes","internalType":"bytes"},{"name":"logic","type":"address","internalType":"address"},{"name":"logicInit","type":"bytes","internalType":"bytes"},{"name":"deadline","type":"uint256","internalType":"uint256"},{"name":"sig","type":"bytes","internalType":"bytes"}],"outputs":[{"name":"channelId","type":"bytes32","internalType":"bytes32"},{"name":"pointer","type":"address","internalType":"address"}],"stateMutability":"nonpayable"},{"type":"function","name":"self","inputs":[],"outputs":[{"name":"","type":"address","internalType":"address"}],"stateMutability":"view"},{"type":"function","name":"updateChannelData","inputs":[{"name":"userId","type":"uint256","internalType":"uint256"},{"name":"channelId","type":"bytes32","internalType":"bytes32"},{"name":"data","type":"bytes","internalType":"bytes"}],"outputs":[{"name":"pointer","type":"address","internalType":"address"}],"stateMutability":"nonpayable"},{"type":"function","name":"updateChannelDataFor","inputs":[{"name":"signer","type":"address","internalType":"address"},{"name":"userId","type":"uint256","internalType":"uint256"},{"name":"channelId","type":"bytes32","internalType":"bytes32"},{"name":"data","type":"bytes","internalType":"bytes"},{"name":"deadline","type":"uint256","internalType":"uint256"},{"name":"sig","type":"bytes","internalType":"bytes"}],"outputs":[{"name":"pointer","type":"address","internalType":"address"}],"stateMutability":"nonpayable"},{"type":"function","name":"updateChannelLogic","inputs":[{"name":"userId","type":"uint256","internalType":"uint256"},{"name":"channelId","type":"bytes32","internalType":"bytes32"},{"name":"logic","type":"address","internalType":"address"},{"name":"logicInit","type":"bytes","internalType":"bytes"}],"outputs":[],"stateMutability":"nonpayable"},{"type":"function","name":"updateChannelLogicFor","inputs":[{"name":"signer","type":"address","internalType":"address"},{"name":"userId","type":"uint256","internalType":"uint256"},{"name":"channelId","type":"bytes32","internalType":"bytes32"},{"name":"logic","type":"address","internalType":"address"},{"name":"logicInit","type":"bytes","internalType":"bytes"},{"name":"deadline","type":"uint256","internalType":"uint256"},{"name":"sig","type":"bytes","internalType":"bytes"}],"outputs":[],"stateMutability":"nonpayable"},{"type":"event","name":"EIP712DomainChanged","inputs":[],"anonymous":false},{"type":"event","name":"NewChannel","inputs":[{"name":"sender","type":"address","indexed":false,"internalType":"address"},{"name":"userId","type":"uint256","indexed":false,"internalType":"uint256"},{"name":"channelId","type":"bytes32","indexed":false,"internalType":"bytes32"},{"name":"pointer","type":"address","indexed":false,"internalType":"address"},{"name":"logic","type":"address","indexed":false,"internalType":"address"}],"anonymous":false},{"type":"event","name":"UpdateData","inputs":[{"name":"sender","type":"address","indexed":false,"internalType":"address"},{"name":"userId","type":"uint256","indexed":false,"internalType":"uint256"},{"name":"channelId","type":"bytes32","indexed":false,"internalType":"bytes32"},{"name":"pointer","type":"address","indexed":false,"internalType":"address"}],"anonymous":false},{"type":"event","name":"UpdateLogic","inputs":[{"name":"sender","type":"address","indexed":false,"internalType":"address"},{"name":"userId","type":"uint256","indexed":false,"internalType":"uint256"},{"name":"channelId","type":"bytes32","indexed":false,"internalType":"bytes32"},{"name":"logic","type":"address","indexed":false,"internalType":"address"}],"anonymous":false},{"type":"error","name":"InvalidCodeAtRange","inputs":[{"name":"_size","type":"uint256","internalType":"uint256"},{"name":"_start","type":"uint256","internalType":"uint256"},{"name":"_end","type":"uint256","internalType":"uint256"}]},{"type":"error","name":"InvalidShortString","inputs":[]},{"type":"error","name":"InvalidSignature","inputs":[]},{"type":"error","name":"No_Update_Access","inputs":[]},{"type":"error","name":"SignatureExpired","inputs":[]},{"type":"error","name":"StringTooLong","inputs":[{"name":"str","type":"string","internalType":"string"}]},{"type":"error","name":"Unauthorized_Signer_For_User","inputs":[{"name":"userId","type":"uint256","internalType":"uint256"}]},{"type":"error","name":"WriteError","inputs":[]}],"bytecode":{"object":"0x6101806040523480156200001257600080fd5b5060405162002ba538038062002ba5833981016040819052620000359162000207565b604080518082018252600f81526e4368616e6e656c526567697374727960881b602080830191909152825180840190935260018352603160f81b908301529081816200008382600062000165565b610120526200009481600162000165565b61014052815160208084019190912060e052815190820120610100524660a0526200012260e05161010051604080517f8b73c3c69bb8fe3d512ecc4cf759cc79239f7b179b0ffacaa9a75d522b39400f60208201529081019290925260608201524660808201523060a082015260009060c00160405160208183030381529060405280519060200120905090565b60805250503060c0819052610160525050600280546001600160a01b039384166001600160a01b0319918216179091556003805492909316911617905562000428565b600060208351101562000185576200017d836200019e565b905062000198565b81620001928482620002e6565b5060ff90505b92915050565b600080829050601f81511115620001d5578260405163305a27a960e01b8152600401620001cc9190620003b2565b60405180910390fd5b8051620001e28262000403565b179392505050565b80516001600160a01b03811681146200020257600080fd5b919050565b600080604083850312156200021b57600080fd5b6200022683620001ea565b91506200023660208401620001ea565b90509250929050565b634e487b7160e01b600052604160045260246000fd5b600181811c908216806200026a57607f821691505b6020821081036200028b57634e487b7160e01b600052602260045260246000fd5b50919050565b601f821115620002e1576000816000526020600020601f850160051c81016020861015620002bc5750805b601f850160051c820191505b81811015620002dd57828155600101620002c8565b5050505b505050565b81516001600160401b038111156200030257620003026200023f565b6200031a8162000313845462000255565b8462000291565b602080601f831160018114620003525760008415620003395750858301515b600019600386901b1c1916600185901b178555620002dd565b600085815260208120601f198616915b82811015620003835788860151825594840194600190910190840162000362565b5085821015620003a25787850151600019600388901b60f8161c191681555b5050505050600190811b01905550565b60006020808352835180602085015260005b81811015620003e257858101830151858201604001528201620003c4565b506000604082860101526040601f19601f8301168501019250505092915050565b805160208083015191908110156200028b5760001960209190910360031b1b16919050565b60805160a05160c05160e0516101005161012051610140516101605161271062000495600039600081816102b901526109da015260006114f8015260006114cb015260006114730152600061144b015260006113a6015260006113d0015260006113fa01526127106000f3fe608060405234801561001057600080fd5b506004361061018c5760003560e01c806384b0196e116100e3578063b844e47e1161008c578063e157f0be11610066578063e157f0be14610453578063e5789df514610466578063f311c6671461047957600080fd5b8063b844e47e146103f2578063d119ca4814610419578063dd3ce5bf1461044057600080fd5b8063a4fb4a55116100bd578063a4fb4a551461036e578063adb95b7914610395578063b2bde3bb146103bc57600080fd5b806384b0196e1461030a5780638874abec1461032557806390d265d71461033857600080fd5b80634980f288116101455780637104ddb21161011f5780637104ddb2146102b457806378e890ba146102db5780637b861f59146102e357600080fd5b80634980f288146102435780635eed714e1461026457806366ce08301461027757600080fd5b806311f811a21161017657806311f811a2146101ee57806313bfffac1461020e578063416683b41461022e57600080fd5b8062788d14146101915780630aa13b8c146101ce575b600080fd5b6101a461019f366004611e13565b610499565b60405173ffffffffffffffffffffffffffffffffffffffff90911681526020015b60405180910390f35b6002546101a49073ffffffffffffffffffffffffffffffffffffffff1681565b6102016101fc366004611eb2565b610528565b6040516101c59190611f39565b6003546101a49073ffffffffffffffffffffffffffffffffffffffff1681565b61024161023c366004611f4c565b610646565b005b610256610251366004611eb2565b6106d3565b6040519081526020016101c5565b610256610272366004612000565b6106e4565b61028a61028536600461202c565b6106fb565b6040805192835273ffffffffffffffffffffffffffffffffffffffff9091166020830152016101c5565b6101a47f000000000000000000000000000000000000000000000000000000000000000081565b61025661074b565b6102567f577df4332796e9946185867b08f4e4029793ab4781a202063a3076824fbf36a081565b61031261075a565b6040516101c597969594939291906120ba565b61025661033336600461217c565b6107bc565b6101a4610346366004611eb2565b60056020526000908152604090205473ffffffffffffffffffffffffffffffffffffffff1681565b6102567fb9be7888f4f8043e94e98ce5c427115c6bf5ccb07af32dea0c5cec8e04d2850081565b6102567f9073d9bf2db4106de5b7ddec2e85eecefbd681578d3e8e562c4d83e64817654581565b6101a46103ca366004611eb2565b60066020526000908152604090205473ffffffffffffffffffffffffffffffffffffffff1681565b6102567fd74416be5a0f22763f73a0a923d9377b0b124062ba89b1de75e6f905f7cb083681565b6102567fba272a267de5f13cbe9392a082f3773bc50d32aace99039441ab41f14f821fac81565b6101a461044e36600461219e565b610817565b6102416104613660046121f1565b61085e565b61028a61047436600461225b565b6108a3565b610256610487366004611eb2565b60046020526000908152604090205481565b60006104de88888b8787878080601f01602080910402602001604051908101604052809392919081815260200183838082843760009201919091525061093b92505050565b600061050b898b7fdd3ce5bf000000000000000000000000000000000000000000000000000000006109af565b905061051a818a8a8a8a6109ff565b9a9950505050505050505050565b6000818152600560205260408120546060919061055a9073ffffffffffffffffffffffffffffffffffffffff16610bc9565b90506000610569826000610bf7565b905060006105858360148086516105809190612361565b610c8c565b6040517f316df61e00000000000000000000000000000000000000000000000000000000815290915073ffffffffffffffffffffffffffffffffffffffff83169063316df61e906105da908490600401611f39565b600060405180830381865afa1580156105f7573d6000803e3d6000fd5b505050506040513d6000823e601f3d9081017fffffffffffffffffffffffffffffffffffffffffffffffffffffffffffffffe016820160405261063d91908101906123a3565b95945050505050565b61068a8888888c8787878080601f016020809104026020016040519081016040528093929190818152602001838380828437600092019190915250610e0692505050565b60006106b7898b7fe157f0be000000000000000000000000000000000000000000000000000000006109af565b90506106c7818a8a8a8a8a610e70565b50505050505050505050565b60006106de82611082565b92915050565b60006106f18484846110ca565b90505b9392505050565b6000808061072a89337f66ce0830000000000000000000000000000000000000000000000000000000006109af565b905061073b818a8a8a8a8a8a611177565b909a909950975050505050505050565b600061075561138c565b905090565b60006060806000806000606061076e6114c4565b6107766114f1565b604080516000808252602082019092527f0f000000000000000000000000000000000000000000000000000000000000009b939a50919850469750309650945092509050565b6040805160208082018590528183018490527fb9be7888f4f8043e94e98ce5c427115c6bf5ccb07af32dea0c5cec8e04d2850060608084019190915283518084039091018152608090920190925280519101206000906106f4565b60008061084586337fdd3ce5bf000000000000000000000000000000000000000000000000000000006109af565b905061085481878787876109ff565b9695505050505050565b600061088b86337fe157f0be000000000000000000000000000000000000000000000000000000006109af565b905061089b818787878787610e70565b505050505050565b6000806108e98b898e8888888080601f01602080910402602001604051908101604052809392919081815260200183838082843760009201919091525061151e92505050565b60006109168c8e7f66ce0830000000000000000000000000000000000000000000000000000000006109af565b9050610927818d8d8d8d8d8d611177565b909e909d509b505050505050505050505050565b604080517f9073d9bf2db4106de5b7ddec2e85eecefbd681578d3e8e562c4d83e648176545602082015290810186905260608101859052608081018390526109a8906109a09060a0015b60405160208183030381529060405280519060200120611082565b848484611581565b5050505050565b6002546003546000916106f19173ffffffffffffffffffffffffffffffffffffffff918216911686867f000000000000000000000000000000000000000000000000000000000000000087611602565b6000838152600660205260408082205490517fe1078c9900000000000000000000000000000000000000000000000000000000815260048101879052602481018690526044810183905260029173ffffffffffffffffffffffffffffffffffffffff169063e1078c9990606401602060405180830381865afa158015610a89573d6000803e3d6000fd5b505050506040513d601f19601f82011682018060405250810190610aad919061249d565b1015610ae5576040517f2e0f1be300000000000000000000000000000000000000000000000000000000815260040160405180910390fd5b610b2483838080601f0160208091040260200160405190810160405280939291908181526020018383808284376000920191909152506117d192505050565b60008581526005602090815260409182902080547fffffffffffffffffffffffff00000000000000000000000000000000000000001673ffffffffffffffffffffffffffffffffffffffff8581169182179092558351918b16825291810189905291820187905260608201529091507fd21079e2a9a6c0ee2dfa4847bf0eb4a004c035b9367b171216b45c5b0ee16c229060800160405180910390a195945050505050565b60606106de8260017fffffffffffffffffffffffffffffffffffffffffffffffffffffffffffffffff61185c565b6000610c048260146124b6565b83511015610c73576040517f08c379a000000000000000000000000000000000000000000000000000000000815260206004820152601560248201527f746f416464726573735f6f75744f66426f756e6473000000000000000000000060448201526064015b60405180910390fd5b5001602001516c01000000000000000000000000900490565b606081610c9a81601f6124b6565b1015610d02576040517f08c379a000000000000000000000000000000000000000000000000000000000815260206004820152600e60248201527f736c6963655f6f766572666c6f770000000000000000000000000000000000006044820152606401610c6a565b610d0c82846124b6565b84511015610d76576040517f08c379a000000000000000000000000000000000000000000000000000000000815260206004820152601160248201527f736c6963655f6f75744f66426f756e64730000000000000000000000000000006044820152606401610c6a565b606082158015610d955760405191506000825260208201604052610dfd565b6040519150601f8416801560200281840101858101878315602002848b0101015b81831015610dce578051835260209283019201610db6565b5050858452601f017fffffffffffffffffffffffffffffffffffffffffffffffffffffffffffffffe016604052505b50949350505050565b604080517fba272a267de5f13cbe9392a082f3773bc50d32aace99039441ab41f14f821fac60208201529081018790526060810186905273ffffffffffffffffffffffffffffffffffffffff8516608082015260a0810183905261089b906109a09060c001610985565b6000848152600660205260408082205490517fe1078c990000000000000000000000000000000000000000000000000000000081526004810188905260248101879052604481019290925260029173ffffffffffffffffffffffffffffffffffffffff9091169063e1078c9990606401602060405180830381865afa158015610efd573d6000803e3d6000fd5b505050506040513d601f19601f82011682018060405250810190610f21919061249d565b1015610f59576040517f2e0f1be300000000000000000000000000000000000000000000000000000000815260040160405180910390fd5b6000848152600660205260409081902080547fffffffffffffffffffffffff00000000000000000000000000000000000000001673ffffffffffffffffffffffffffffffffffffffff861690811790915590517fa222d24f00000000000000000000000000000000000000000000000000000000815263a222d24f90610fe99088908890879087906004016124c9565b600060405180830381600087803b15801561100357600080fd5b505af1158015611017573d6000803e3d6000fd5b50506040805173ffffffffffffffffffffffffffffffffffffffff8a81168252602082018a90528183018990528716606082015290517f38a76728f173d6e8df70c760dfe1bea050625beaaac6f8cdbcf5adb718d970119350908190036080019150a1505050505050565b60006106de61108f61138c565b836040517f19010000000000000000000000000000000000000000000000000000000000008152600281019290925260228201526042902090565b6000828152600660205260408082205490517fe1078c9900000000000000000000000000000000000000000000000000000000815260048101869052602481018590526044810184905273ffffffffffffffffffffffffffffffffffffffff9091169063e1078c9990606401602060405180830381865afa158015611153573d6000803e3d6000fd5b505050506040513d601f19601f820116820180604052508101906106f1919061249d565b6000806111fa88600460008b81526020019081526020016000206000815461119e90612524565b918290555060408051602080820194909452808201929092527fb9be7888f4f8043e94e98ce5c427115c6bf5ccb07af32dea0c5cec8e04d285006060808401919091528151808403909101815260809092019052805191012090565b915061123b87878080601f0160208091040260200160405190810160405280939291908181526020018383808284376000920191909152506117d192505050565b6000838152600560209081526040808320805473ffffffffffffffffffffffffffffffffffffffff8681167fffffffffffffffffffffffff0000000000000000000000000000000000000000928316179092556006909352928190208054938a16939092168317909155517fa222d24f0000000000000000000000000000000000000000000000000000000081529192509063a222d24f906112e7908b908690899089906004016124c9565b600060405180830381600087803b15801561130157600080fd5b505af1158015611315573d6000803e3d6000fd5b50506040805173ffffffffffffffffffffffffffffffffffffffff8d81168252602082018d905281830187905285811660608301528916608082015290517fc3daaf2a134d45ee8c5c0371ab26629e2bfae5b676d70d967072965bdace9d4693509081900360a0019150a197509795505050505050565b60003073ffffffffffffffffffffffffffffffffffffffff7f0000000000000000000000000000000000000000000000000000000000000000161480156113f257507f000000000000000000000000000000000000000000000000000000000000000046145b1561141c57507f000000000000000000000000000000000000000000000000000000000000000090565b610755604080517f8b73c3c69bb8fe3d512ecc4cf759cc79239f7b179b0ffacaa9a75d522b39400f60208201527f0000000000000000000000000000000000000000000000000000000000000000918101919091527f000000000000000000000000000000000000000000000000000000000000000060608201524660808201523060a082015260009060c00160405160208183030381529060405280519060200120905090565b60606107557f00000000000000000000000000000000000000000000000000000000000000006000611948565b60606107557f00000000000000000000000000000000000000000000000000000000000000006001611948565b604080517f577df4332796e9946185867b08f4e4029793ab4781a202063a3076824fbf36a0602082015290810186905273ffffffffffffffffffffffffffffffffffffffff85166060820152608081018390526109a8906109a09060a001610985565b814211156115bb576040517f0819bdcd00000000000000000000000000000000000000000000000000000000815260040160405180910390fd5b6115c68385836119f3565b6115fc576040517f8baa579f00000000000000000000000000000000000000000000000000000000815260040160405180910390fd5b50505050565b6040517f65269e470000000000000000000000000000000000000000000000000000000081526004810185905260009073ffffffffffffffffffffffffffffffffffffffff8816906365269e4790602401602060405180830381865afa158015611670573d6000803e3d6000fd5b505050506040513d601f19601f82011682018060405250810190611694919061255c565b73ffffffffffffffffffffffffffffffffffffffff168473ffffffffffffffffffffffffffffffffffffffff16146117c6576040517fb4ae4c490000000000000000000000000000000000000000000000000000000081526004810186905273ffffffffffffffffffffffffffffffffffffffff858116602483015284811660448301527fffffffff000000000000000000000000000000000000000000000000000000008416606483015287169063b4ae4c4990608401602060405180830381865afa158015611769573d6000803e3d6000fd5b505050506040513d601f19601f8201168201806040525081019061178d9190612579565b6117c6576040517f532f88b000000000000000000000000000000000000000000000000000000000815260048101869052602401610c6a565b509195945050505050565b6000806117fc836040516020016117e8919061259b565b604051602081830303815290604052611a65565b90508051602082016000f0915073ffffffffffffffffffffffffffffffffffffffff8216611856576040517f08d4abb600000000000000000000000000000000000000000000000000000000815260040160405180910390fd5b50919050565b6060833b600081900361187f5750506040805160208101909152600081526106f4565b8084111561189d5750506040805160208101909152600081526106f4565b838310156118e8576040517f2c4a89fa000000000000000000000000000000000000000000000000000000008152600481018290526024810185905260448101849052606401610c6a565b83830384820360008282106118fd57826118ff565b815b60408051603f83017fffffffffffffffffffffffffffffffffffffffffffffffffffffffffffffffe0168101909152818152955090508087602087018a3c505050509392505050565b606060ff83146119625761195b83611a91565b90506106de565b81805461196e906125c1565b80601f016020809104026020016040519081016040528092919081815260200182805461199a906125c1565b80156119e75780601f106119bc576101008083540402835291602001916119e7565b820191906000526020600020905b8154815290600101906020018083116119ca57829003601f168201915b505050505090506106de565b6000806000611a028585611ad0565b5090925090506000816003811115611a1c57611a1c61246e565b148015611a5457508573ffffffffffffffffffffffffffffffffffffffff168273ffffffffffffffffffffffffffffffffffffffff16145b806108545750610854868686611b1d565b6060815182604051602001611a7b92919061260e565b6040516020818303038152906040529050919050565b60606000611a9e83611c6a565b604080516020808252818301909252919250600091906020820181803683375050509182525060208101929092525090565b60008060008351604103611b0a5760208401516040850151606086015160001a611afc88828585611cab565b955095509550505050611b16565b50508151600091506002905b9250925092565b60008060008573ffffffffffffffffffffffffffffffffffffffff168585604051602401611b4c9291906126a5565b604080517fffffffffffffffffffffffffffffffffffffffffffffffffffffffffffffffe08184030181529181526020820180517bffffffffffffffffffffffffffffffffffffffffffffffffffffffff167f1626ba7e0000000000000000000000000000000000000000000000000000000017905251611bcd91906126be565b600060405180830381855afa9150503d8060008114611c08576040519150601f19603f3d011682016040523d82523d6000602084013e611c0d565b606091505b5091509150818015611c2157506020815110155b8015610854575080517f1626ba7e0000000000000000000000000000000000000000000000000000000090611c5f908301602090810190840161249d565b149695505050505050565b600060ff8216601f8111156106de576040517fb3512b0c00000000000000000000000000000000000000000000000000000000815260040160405180910390fd5b600080807f7fffffffffffffffffffffffffffffff5d576e7357a4501ddfe92f46681b20a0841115611ce65750600091506003905082611d9b565b604080516000808252602082018084528a905260ff891692820192909252606081018790526080810186905260019060a0016020604051602081039080840390855afa158015611d3a573d6000803e3d6000fd5b50506040517fffffffffffffffffffffffffffffffffffffffffffffffffffffffffffffffe0015191505073ffffffffffffffffffffffffffffffffffffffff8116611d9157506000925060019150829050611d9b565b9250600091508190505b9450945094915050565b73ffffffffffffffffffffffffffffffffffffffff81168114611dc757600080fd5b50565b60008083601f840112611ddc57600080fd5b50813567ffffffffffffffff811115611df457600080fd5b602083019150836020828501011115611e0c57600080fd5b9250929050565b60008060008060008060008060c0898b031215611e2f57600080fd5b8835611e3a81611da5565b97506020890135965060408901359550606089013567ffffffffffffffff80821115611e6557600080fd5b611e718c838d01611dca565b909750955060808b0135945060a08b0135915080821115611e9157600080fd5b50611e9e8b828c01611dca565b999c989b5096995094979396929594505050565b600060208284031215611ec457600080fd5b5035919050565b60005b83811015611ee6578181015183820152602001611ece565b50506000910152565b60008151808452611f07816020860160208601611ecb565b601f017fffffffffffffffffffffffffffffffffffffffffffffffffffffffffffffffe0169290920160200192915050565b6020815260006106f46020830184611eef565b600080600080600080600080600060e08a8c031215611f6a57600080fd5b8935611f7581611da5565b985060208a0135975060408a0135965060608a0135611f9381611da5565b955060808a013567ffffffffffffffff80821115611fb057600080fd5b611fbc8d838e01611dca565b909750955060a08c0135945060c08c0135915080821115611fdc57600080fd5b50611fe98c828d01611dca565b915080935050809150509295985092959850929598565b60008060006060848603121561201557600080fd5b505081359360208301359350604090920135919050565b6000806000806000806080878903121561204557600080fd5b86359550602087013567ffffffffffffffff8082111561206457600080fd5b6120708a838b01611dca565b90975095506040890135915061208582611da5565b9093506060880135908082111561209b57600080fd5b506120a889828a01611dca565b979a9699509497509295939492505050565b7fff00000000000000000000000000000000000000000000000000000000000000881681526000602060e060208401526120f760e084018a611eef565b8381036040850152612109818a611eef565b6060850189905273ffffffffffffffffffffffffffffffffffffffff8816608086015260a0850187905284810360c08601528551808252602080880193509091019060005b8181101561216a5783518352928401929184019160010161214e565b50909c9b505050505050505050505050565b6000806040838503121561218f57600080fd5b50508035926020909101359150565b600080600080606085870312156121b457600080fd5b8435935060208501359250604085013567ffffffffffffffff8111156121d957600080fd5b6121e587828801611dca565b95989497509550505050565b60008060008060006080868803121561220957600080fd5b8535945060208601359350604086013561222281611da5565b9250606086013567ffffffffffffffff81111561223e57600080fd5b61224a88828901611dca565b969995985093965092949392505050565b60008060008060008060008060008060e08b8d03121561227a57600080fd5b8a3561228581611da5565b995060208b0135985060408b013567ffffffffffffffff808211156122a957600080fd5b6122b58e838f01611dca565b909a50985060608d013591506122ca82611da5565b90965060808c013590808211156122e057600080fd5b6122ec8e838f01611dca565b909750955060a08d0135945060c08d013591508082111561230c57600080fd5b506123198d828e01611dca565b915080935050809150509295989b9194979a5092959850565b7f4e487b7100000000000000000000000000000000000000000000000000000000600052601160045260246000fd5b818103818111156106de576106de612332565b7f4e487b7100000000000000000000000000000000000000000000000000000000600052604160045260246000fd5b6000602082840312156123b557600080fd5b815167ffffffffffffffff808211156123cd57600080fd5b818401915084601f8301126123e157600080fd5b8151818111156123f3576123f3612374565b604051601f82017fffffffffffffffffffffffffffffffffffffffffffffffffffffffffffffffe0908116603f0116810190838211818310171561243957612439612374565b8160405282815287602084870101111561245257600080fd5b612463836020830160208801611ecb565b979650505050505050565b7f4e487b7100000000000000000000000000000000000000000000000000000000600052602160045260246000fd5b6000602082840312156124af57600080fd5b5051919050565b808201808211156106de576106de612332565b84815283602082015260606040820152816060820152818360808301376000818301608090810191909152601f9092017fffffffffffffffffffffffffffffffffffffffffffffffffffffffffffffffe01601019392505050565b60007fffffffffffffffffffffffffffffffffffffffffffffffffffffffffffffffff820361255557612555612332565b5060010190565b60006020828403121561256e57600080fd5b81516106f481611da5565b60006020828403121561258b57600080fd5b815180151581146106f457600080fd5b60008152600082516125b4816001850160208701611ecb565b9190910160010192915050565b600181811c908216806125d557607f821691505b602082108103611856577f4e487b7100000000000000000000000000000000000000000000000000000000600052602260045260246000fd5b7f630000000000000000000000000000000000000000000000000000000000000081527fffffffff000000000000000000000000000000000000000000000000000000008360e01b1660018201527f80600e6000396000f3000000000000000000000000000000000000000000000060058201526000825161269781600e850160208701611ecb565b91909101600e019392505050565b8281526040602082015260006106f16040830184611eef565b600082516126d0818460208701611ecb565b919091019291505056fea26469706673582212200eb16606f0b9805ff117ac75e61f5ca9da11c5cb9bd95c67667e94aa605e6b0e64736f6c63430008170033","linkReferences":{}},"methodIdentifiers":{"CHANNEL_SALT()":"a4fb4a55","ITEM_SALT()":"b844e47e","NEW_CHANNEL_TYPEHASH()":"7b861f59","UPDATE_CHANNEL_DATA_TYPEHASH()":"adb95b79","UPDATE_CHANNEL_LOGIC_TYPEHASH()":"d119ca48","channelCountForUser(uint256)":"f311c667","channelUri(bytes32)":"11f811a2","dataForChannel(bytes32)":"90d265d7","delegateRegistry()":"13bfffac","domainSeparatorV4()":"78e890ba","eip712Domain()":"84b0196e","generateChanneHash(uint256,uint256)":"8874abec","getAccess(uint256,bytes32,uint256)":"5eed714e","hashTypedDataV4(bytes32)":"4980f288","idRegistry()":"0aa13b8c","logicForChannel(bytes32)":"b2bde3bb","newChannel(uint256,bytes,address,bytes)":"66ce0830","newChannelFor(address,uint256,bytes,address,bytes,uint256,bytes)":"e5789df5","self()":"7104ddb2","updateChannelData(uint256,bytes32,bytes)":"dd3ce5bf","updateChannelDataFor(address,uint256,bytes32,bytes,uint256,bytes)":"00788d14","updateChannelLogic(uint256,bytes32,address,bytes)":"e157f0be","updateChannelLogicFor(address,uint256,bytes32,address,bytes,uint256,bytes)":"416683b4"},"id":47}