{"abi":[{"type":"constructor","inputs":[{"name":"_initialOwner","type":"address","internalType":"address"}],"stateMutability":"nonpayable"},{"type":"function","name":"CHANGE_RECOVERY_ADDRESS_TYPEHASH","inputs":[],"outputs":[{"name":"","type":"bytes32","internalType":"bytes32"}],"stateMutability":"view"},{"type":"function","name":"NAME","inputs":[],"outputs":[{"name":"","type":"string","internalType":"string"}],"stateMutability":"view"},{"type":"function","name":"REGISTER_TYPEHASH","inputs":[],"outputs":[{"name":"","type":"bytes32","internalType":"bytes32"}],"stateMutability":"view"},{"type":"function","name":"TRANSFER_AND_CHANGE_RECOVERY_TYPEHASH","inputs":[],"outputs":[{"name":"","type":"bytes32","internalType":"bytes32"}],"stateMutability":"view"},{"type":"function","name":"TRANSFER_TYPEHASH","inputs":[],"outputs":[{"name":"","type":"bytes32","internalType":"bytes32"}],"stateMutability":"view"},{"type":"function","name":"VERSION","inputs":[],"outputs":[{"name":"","type":"string","internalType":"string"}],"stateMutability":"view"},{"type":"function","name":"acceptOwnership","inputs":[],"outputs":[],"stateMutability":"nonpayable"},{"type":"function","name":"changeRecoveryAddress","inputs":[{"name":"recovery","type":"address","internalType":"address"}],"outputs":[],"stateMutability":"nonpayable"},{"type":"function","name":"changeRecoveryAddressFor","inputs":[{"name":"owner","type":"address","internalType":"address"},{"name":"recovery","type":"address","internalType":"address"},{"name":"deadline","type":"uint256","internalType":"uint256"},{"name":"sig","type":"bytes","internalType":"bytes"}],"outputs":[],"stateMutability":"nonpayable"},{"type":"function","name":"custodyOf","inputs":[{"name":"rid","type":"uint256","internalType":"uint256"}],"outputs":[{"name":"owner","type":"address","internalType":"address"}],"stateMutability":"view"},{"type":"function","name":"disableTrustedOnly","inputs":[],"outputs":[],"stateMutability":"nonpayable"},{"type":"function","name":"domainSeparatorV4","inputs":[],"outputs":[{"name":"","type":"bytes32","internalType":"bytes32"}],"stateMutability":"view"},{"type":"function","name":"eip712Domain","inputs":[],"outputs":[{"name":"fields","type":"bytes1","internalType":"bytes1"},{"name":"name","type":"string","internalType":"string"},{"name":"version","type":"string","internalType":"string"},{"name":"chainId","type":"uint256","internalType":"uint256"},{"name":"verifyingContract","type":"address","internalType":"address"},{"name":"salt","type":"bytes32","internalType":"bytes32"},{"name":"extensions","type":"uint256[]","internalType":"uint256[]"}],"stateMutability":"view"},{"type":"function","name":"hashTypedDataV4","inputs":[{"name":"structHash","type":"bytes32","internalType":"bytes32"}],"outputs":[{"name":"","type":"bytes32","internalType":"bytes32"}],"stateMutability":"view"},{"type":"function","name":"idCounter","inputs":[],"outputs":[{"name":"","type":"uint256","internalType":"uint256"}],"stateMutability":"view"},{"type":"function","name":"idOf","inputs":[{"name":"owner","type":"address","internalType":"address"}],"outputs":[{"name":"rid","type":"uint256","internalType":"uint256"}],"stateMutability":"view"},{"type":"function","name":"nonces","inputs":[{"name":"owner","type":"address","internalType":"address"}],"outputs":[{"name":"","type":"uint256","internalType":"uint256"}],"stateMutability":"view"},{"type":"function","name":"owner","inputs":[],"outputs":[{"name":"","type":"address","internalType":"address"}],"stateMutability":"view"},{"type":"function","name":"pause","inputs":[],"outputs":[],"stateMutability":"nonpayable"},{"type":"function","name":"paused","inputs":[],"outputs":[{"name":"","type":"bool","internalType":"bool"}],"stateMutability":"view"},{"type":"function","name":"pendingOwner","inputs":[],"outputs":[{"name":"","type":"address","internalType":"address"}],"stateMutability":"view"},{"type":"function","name":"recover","inputs":[{"name":"from","type":"address","internalType":"address"},{"name":"to","type":"address","internalType":"address"},{"name":"deadline","type":"uint256","internalType":"uint256"},{"name":"toSig","type":"bytes","internalType":"bytes"}],"outputs":[],"stateMutability":"nonpayable"},{"type":"function","name":"recoverFor","inputs":[{"name":"from","type":"address","internalType":"address"},{"name":"to","type":"address","internalType":"address"},{"name":"recoveryDeadline","type":"uint256","internalType":"uint256"},{"name":"recoverySig","type":"bytes","internalType":"bytes"},{"name":"toDeadline","type":"uint256","internalType":"uint256"},{"name":"toSig","type":"bytes","internalType":"bytes"}],"outputs":[],"stateMutability":"nonpayable"},{"type":"function","name":"recoveryOf","inputs":[{"name":"rid","type":"uint256","internalType":"uint256"}],"outputs":[{"name":"recovery","type":"address","internalType":"address"}],"stateMutability":"view"},{"type":"function","name":"register","inputs":[{"name":"recovery","type":"address","internalType":"address"}],"outputs":[{"name":"rid","type":"uint256","internalType":"uint256"}],"stateMutability":"nonpayable"},{"type":"function","name":"registerFor","inputs":[{"name":"to","type":"address","internalType":"address"},{"name":"recovery","type":"address","internalType":"address"},{"name":"deadline","type":"uint256","internalType":"uint256"},{"name":"sig","type":"bytes","internalType":"bytes"}],"outputs":[{"name":"rid","type":"uint256","internalType":"uint256"}],"stateMutability":"nonpayable"},{"type":"function","name":"renounceOwnership","inputs":[],"outputs":[],"stateMutability":"nonpayable"},{"type":"function","name":"setTrustedCaller","inputs":[{"name":"_trustedCaller","type":"address","internalType":"address"}],"outputs":[],"stateMutability":"nonpayable"},{"type":"function","name":"transfer","inputs":[{"name":"to","type":"address","internalType":"address"},{"name":"deadline","type":"uint256","internalType":"uint256"},{"name":"toSig","type":"bytes","internalType":"bytes"}],"outputs":[],"stateMutability":"nonpayable"},{"type":"function","name":"transferAndChangeRecovery","inputs":[{"name":"to","type":"address","internalType":"address"},{"name":"recovery","type":"address","internalType":"address"},{"name":"deadline","type":"uint256","internalType":"uint256"},{"name":"sig","type":"bytes","internalType":"bytes"}],"outputs":[],"stateMutability":"nonpayable"},{"type":"function","name":"transferAndChangeRecoveryFor","inputs":[{"name":"from","type":"address","internalType":"address"},{"name":"to","type":"address","internalType":"address"},{"name":"recovery","type":"address","internalType":"address"},{"name":"fromDeadline","type":"uint256","internalType":"uint256"},{"name":"fromSig","type":"bytes","internalType":"bytes"},{"name":"toDeadline","type":"uint256","internalType":"uint256"},{"name":"toSig","type":"bytes","internalType":"bytes"}],"outputs":[],"stateMutability":"nonpayable"},{"type":"function","name":"transferFor","inputs":[{"name":"from","type":"address","internalType":"address"},{"name":"to","type":"address","internalType":"address"},{"name":"fromDeadline","type":"uint256","internalType":"uint256"},{"name":"fromSig","type":"bytes","internalType":"bytes"},{"name":"toDeadline","type":"uint256","internalType":"uint256"},{"name":"toSig","type":"bytes","internalType":"bytes"}],"outputs":[],"stateMutability":"nonpayable"},{"type":"function","name":"transferOwnership","inputs":[{"name":"newOwner","type":"address","internalType":"address"}],"outputs":[],"stateMutability":"nonpayable"},{"type":"function","name":"trustedCaller","inputs":[],"outputs":[{"name":"","type":"address","internalType":"address"}],"stateMutability":"view"},{"type":"function","name":"trustedOnly","inputs":[],"outputs":[{"name":"","type":"uint256","internalType":"uint256"}],"stateMutability":"view"},{"type":"function","name":"unpause","inputs":[],"outputs":[],"stateMutability":"nonpayable"},{"type":"function","name":"useNonce","inputs":[],"outputs":[{"name":"","type":"uint256","internalType":"uint256"}],"stateMutability":"nonpayable"},{"type":"function","name":"verifyRidSignature","inputs":[{"name":"custodyAddress","type":"address","internalType":"address"},{"name":"rid","type":"uint256","internalType":"uint256"},{"name":"digest","type":"bytes32","internalType":"bytes32"},{"name":"sig","type":"bytes","internalType":"bytes"}],"outputs":[{"name":"isValid","type":"bool","internalType":"bool"}],"stateMutability":"view"},{"type":"event","name":"ChangeRecoveryAddress","inputs":[{"name":"id","type":"uint256","indexed":true,"internalType":"uint256"},{"name":"recovery","type":"address","indexed":true,"internalType":"address"}],"anonymous":false},{"type":"event","name":"DisableTrustedOnly","inputs":[],"anonymous":false},{"type":"event","name":"EIP712DomainChanged","inputs":[],"anonymous":false},{"type":"event","name":"OwnershipTransferStarted","inputs":[{"name":"previousOwner","type":"address","indexed":true,"internalType":"address"},{"name":"newOwner","type":"address","indexed":true,"internalType":"address"}],"anonymous":false},{"type":"event","name":"OwnershipTransferred","inputs":[{"name":"previousOwner","type":"address","indexed":true,"internalType":"address"},{"name":"newOwner","type":"address","indexed":true,"internalType":"address"}],"anonymous":false},{"type":"event","name":"Paused","inputs":[{"name":"account","type":"address","indexed":false,"internalType":"address"}],"anonymous":false},{"type":"event","name":"Recover","inputs":[{"name":"from","type":"address","indexed":true,"internalType":"address"},{"name":"to","type":"address","indexed":true,"internalType":"address"},{"name":"id","type":"uint256","indexed":true,"internalType":"uint256"}],"anonymous":false},{"type":"event","name":"Register","inputs":[{"name":"to","type":"address","indexed":true,"internalType":"address"},{"name":"id","type":"uint256","indexed":false,"internalType":"uint256"},{"name":"recovery","type":"address","indexed":false,"internalType":"address"}],"anonymous":false},{"type":"event","name":"SetTrustedCaller","inputs":[{"name":"oldCaller","type":"address","indexed":true,"internalType":"address"},{"name":"newCaller","type":"address","indexed":true,"internalType":"address"},{"name":"owner","type":"address","indexed":false,"internalType":"address"}],"anonymous":false},{"type":"event","name":"Transfer","inputs":[{"name":"from","type":"address","indexed":true,"internalType":"address"},{"name":"to","type":"address","indexed":true,"internalType":"address"},{"name":"id","type":"uint256","indexed":true,"internalType":"uint256"}],"anonymous":false},{"type":"event","name":"Unpaused","inputs":[{"name":"account","type":"address","indexed":false,"internalType":"address"}],"anonymous":false},{"type":"error","name":"EnforcedPause","inputs":[]},{"type":"error","name":"ExpectedPause","inputs":[]},{"type":"error","name":"Has_Id","inputs":[]},{"type":"error","name":"Has_No_Id","inputs":[]},{"type":"error","name":"InvalidAccountNonce","inputs":[{"name":"account","type":"address","internalType":"address"},{"name":"currentNonce","type":"uint256","internalType":"uint256"}]},{"type":"error","name":"InvalidShortString","inputs":[]},{"type":"error","name":"InvalidSignature","inputs":[]},{"type":"error","name":"Invalid_Address","inputs":[]},{"type":"error","name":"Only_Trusted","inputs":[]},{"type":"error","name":"OwnableInvalidOwner","inputs":[{"name":"owner","type":"address","internalType":"address"}]},{"type":"error","name":"OwnableUnauthorizedAccount","inputs":[{"name":"account","type":"address","internalType":"address"}]},{"type":"error","name":"SignatureExpired","inputs":[]},{"type":"error","name":"StringTooLong","inputs":[{"name":"str","type":"string","internalType":"string"}]},{"type":"error","name":"Unauthorized","inputs":[]}],"bytecode":{"object":"0x61016060405260016003553480156200001757600080fd5b5060405162002ba638038062002ba68339810160408190526200003a916200026e565b604080518082018252601081526f5269766572204964526567697374727960801b602080830191909152825180840190935260018352603160f81b9083015290818184806001600160a01b038116620000ae57604051631e4fbdf760e01b8152600060048201526024015b60405180910390fd5b620000b98162000184565b50506004805460ff19169055620000d2826005620001a2565b61012052620000e3816006620001a2565b61014052815160208084019190912060e052815190820120610100524660a0526200017160e05161010051604080517f8b73c3c69bb8fe3d512ecc4cf759cc79239f7b179b0ffacaa9a75d522b39400f60208201529081019290925260608201524660808201523060a082015260009060c00160405160208183030381529060405280519060200120905090565b60805250503060c0525062000489915050565b600180546001600160a01b03191690556200019f81620001db565b50565b6000602083511015620001c257620001ba836200022b565b9050620001d5565b81620001cf848262000347565b5060ff90505b92915050565b600080546001600160a01b038381166001600160a01b0319831681178455604051919092169283917f8be0079c531659141344cd1fd0a4f28419497f9722a3daafe3b4186f6b6457e09190a35050565b600080829050601f8151111562000259578260405163305a27a960e01b8152600401620000a5919062000413565b8051620002668262000464565b179392505050565b6000602082840312156200028157600080fd5b81516001600160a01b03811681146200029957600080fd5b9392505050565b634e487b7160e01b600052604160045260246000fd5b600181811c90821680620002cb57607f821691505b602082108103620002ec57634e487b7160e01b600052602260045260246000fd5b50919050565b601f82111562000342576000816000526020600020601f850160051c810160208610156200031d5750805b601f850160051c820191505b818110156200033e5782815560010162000329565b5050505b505050565b81516001600160401b03811115620003635762000363620002a0565b6200037b81620003748454620002b6565b84620002f2565b602080601f831160018114620003b357600084156200039a5750858301515b600019600386901b1c1916600185901b1785556200033e565b600085815260208120601f198616915b82811015620003e457888601518255948401946001909101908401620003c3565b5085821015620004035787850151600019600388901b60f8161c191681555b5050505050600190811b01905550565b60006020808352835180602085015260005b81811015620004435785810183015185820160400152820162000425565b506000604082860101526040601f19601f8301168501019250505092915050565b80516020808301519190811015620002ec5760001960209190910360031b1b16919050565b60805160a05160c05160e0516101005161012051610140516126c2620004e460003960006118fc015260006118cf0152600061181c015260006117f40152600061174f01526000611779015260006117a301526126c26000f3fe608060405234801561001057600080fd5b50600436106102915760003560e01c80637ecebe0011610160578063d5bac7f3116100d8578063eb08ab281161008c578063f2fde38b11610071578063f2fde38b14610625578063fa1a1b2514610638578063ffa1ad741461066e57600080fd5b8063eb08ab2814610609578063f1f0b2241461061257600080fd5b8063e30c3978116100bd578063e30c3978146105b1578063ea2bbb83146105cf578063ea40ae14146105f657600080fd5b8063d5bac7f31461056a578063d94fe8321461059157600080fd5b80639cbef8dc1161012f578063affeb2ad11610114578063affeb2ad14610531578063ba65643414610544578063be45fd621461055757600080fd5b80639cbef8dc146104d5578063a3f4df7e146104e857600080fd5b80637ecebe001461045e5780638456cb591461049457806384b0196e1461049c5780638da5cb5b146104b757600080fd5b80634c5cbb341161020e5780636b2ddd4e116101c2578063715018a6116101a7578063715018a61461044657806378e890ba1461044e57806379ba50971461045657600080fd5b80636b2ddd4e146104355780636e9bde491461043e57600080fd5b806365269e47116101f357806365269e47146103bb57806369615a4c146103f15780636a5306a31461040e57600080fd5b80634c5cbb34146103915780635c975abb146103a457600080fd5b80633ab8465d116102655780633f4ba83a1161024a5780633f4ba83a146103635780634420e4861461036b5780634980f2881461037e57600080fd5b80633ab8465d1461033d5780633efa0b021461035057600080fd5b8062bf26f41461029657806316f72842146102d0578063268f0760146102e55780632a42ede31461032a575b600080fd5b6102bd7fa53d4816e6db02c5afbc1b672f637e843e95a1607999a35089472baf1e61773c81565b6040519081526020015b60405180910390f35b6102e36102de366004612168565b6106aa565b005b6002546103059073ffffffffffffffffffffffffffffffffffffffff1681565b60405173ffffffffffffffffffffffffffffffffffffffff90911681526020016102c7565b6102e361033836600461220c565b610754565b6102e361034b36600461220c565b610922565b6102bd61035e36600461220c565b610991565b6102e3610a44565b6102bd61037936600461227b565b610a56565b6102bd61038c36600461229d565b610a68565b6102e361039f3660046122b6565b610a73565b60045460ff165b60405190151581526020016102c7565b6103056103c936600461229d565b600a6020526000908152604090205473ffffffffffffffffffffffffffffffffffffffff1681565b3360009081526007602052604090208054600181019091556102bd565b6102bd7fda015cfdaa9f5cc1c418ff1c04a4cbd09fcecc68838ea2e0ec2bb42ce17da78181565b6102bd60035481565b6102e3610b2f565b6102e3610b67565b6102bd610b79565b6102e3610b83565b6102bd61046c36600461227b565b73ffffffffffffffffffffffffffffffffffffffff1660009081526007602052604090205490565b6102e3610bff565b6104a4610c0f565b6040516102c797969594939291906123db565b60005473ffffffffffffffffffffffffffffffffffffffff16610305565b6102e36104e336600461220c565b610c71565b6105246040518060400160405280600881526020017f526976657220494400000000000000000000000000000000000000000000000081525081565b6040516102c7919061249d565b6103ab61053f3660046124b0565b610d50565b6102e3610552366004612168565b610dc0565b6102e36105653660046124fb565b610f91565b6102bd7f1b349d8c89be7a829b7ecc4bfec68d3943512516a783b90dc5d0438f504bf0a481565b6102bd61059f36600461227b565b60096020526000908152604090205481565b60015473ffffffffffffffffffffffffffffffffffffffff16610305565b6102bd7f2525509c0201b8d945070abcd5017557766efc6b7db2fa8d412e06de93f6d24f81565b6102e361060436600461227b565b610ff4565b6102bd60085481565b6102e361062036600461227b565b611005565b6102e361063336600461227b565b611065565b61030561064636600461229d565b600b6020526000908152604090205473ffffffffffffffffffffffffffffffffffffffff1681565b6105246040518060400160405280600a81526020017f323032342e30312e32340000000000000000000000000000000000000000000081525081565b60006106b68989611115565b90506106fb8189898c8a8a8080601f0160208091040260200160405190810160405280939291908181526020018383808284376000920191909152506111d292505050565b61073e8189868b87878080601f0160208091040260200160405190810160405280939291908181526020018383808284376000920191909152506111d292505050565b610749818a8a61128f565b505050505050505050565b73ffffffffffffffffffffffffffffffffffffffff8516600090815260096020526040812054908190036107b4576040517f1625491a00000000000000000000000000000000000000000000000000000000815260040160405180910390fd5b6000818152600b6020526040902054339073ffffffffffffffffffffffffffffffffffffffff168114610813576040517f82b4290000000000000000000000000000000000000000000000000000000000815260040160405180910390fd5b73ffffffffffffffffffffffffffffffffffffffff861660009081526009602052604090205415610870576040517f9ab56e7200000000000000000000000000000000000000000000000000000000815260040160405180910390fd5b6108b38287878988888080601f0160208091040260200160405190810160405280939291908181526020018383808284376000920191909152506111d292505050565b818673ffffffffffffffffffffffffffffffffffffffff168873ffffffffffffffffffffffffffffffffffffffff167ff6891c84a6c6af32a6d052172a8acc4c631b1d5057ffa2bc1da268b6938ea2da60405160405180910390a461091982888861128f565b50505050505050565b600061092e3387611115565b9050610974818787878a88888080601f01602080910402602001604051908101604052809392919081815260200183838082843760009201919091525061133192505050565b61097f81338861128f565b61098981866113d8565b505050505050565b60006003546001036109ee5760025473ffffffffffffffffffffffffffffffffffffffff1633146109ee576040517ff35a1b0000000000000000000000000000000000000000000000000000000000815260040160405180910390fd5b610a3086868686868080601f01602080910402602001604051908101604052809392919081815260200183838082843760009201919091525061145e92505050565b610a3a868661150c565b9695505050505050565b610a4c6115ec565b610a5461163f565b565b6000610a62338361150c565b92915050565b6000610a62826116bc565b6000610a7f8a8a611115565b9050610ac5818a8a8a8e8b8b8080601f01602080910402602001604051908101604052809392919081815260200183838082843760009201919091525061133192505050565b610b09818a8a878d88888080601f01602080910402602001604051908101604052809392919081815260200183838082843760009201919091525061133192505050565b610b14818b8b61128f565b610b1e81896113d8565b50505050505050505050565b905090565b610b376115ec565b600060038190556040517f03732e5295a5bd18e6ef95b03b41aa8bcadae292a7ef40468144c7a727dfa8b59190a1565b610b6f6115ec565b610a546000611704565b6000610b2a611735565b600154339073ffffffffffffffffffffffffffffffffffffffff168114610bf3576040517f118cdaa700000000000000000000000000000000000000000000000000000000815273ffffffffffffffffffffffffffffffffffffffff821660048201526024015b60405180910390fd5b610bfc81611704565b50565b610c076115ec565b610a5461186d565b600060608060008060006060610c236118c8565b610c2b6118f5565b604080516000808252602082019092527f0f000000000000000000000000000000000000000000000000000000000000009b939a50919850469750309650945092509050565b610c79611922565b73ffffffffffffffffffffffffffffffffffffffff851660009081526009602052604081205490819003610cd9576040517f1625491a00000000000000000000000000000000000000000000000000000000815260040160405180910390fd5b61097f81600b600084815260200190815260200160002060009054906101000a900473ffffffffffffffffffffffffffffffffffffffff1687878a88888080601f01602080910402602001604051908101604052809392919081815260200183838082843760009201919091525061195f92505050565b73ffffffffffffffffffffffffffffffffffffffff851660009081526009602052604081205485148015610a3a5750610a3a868585858080601f0160208091040260200160405190810160405280939291908181526020018383808284376000920191909152506119bd92505050565b73ffffffffffffffffffffffffffffffffffffffff881660009081526009602052604081205490819003610e20576040517f1625491a00000000000000000000000000000000000000000000000000000000815260040160405180910390fd5b73ffffffffffffffffffffffffffffffffffffffff881660009081526009602052604090205415610e7d576040517f9ab56e7200000000000000000000000000000000000000000000000000000000815260040160405180910390fd5b6000818152600b6020908152604091829020548251601f8901839004830281018301909352878352610ee89284928c928c9273ffffffffffffffffffffffffffffffffffffffff909116918c908c90819084018382808284376000920191909152506111d292505050565b610f2b8189868b87878080601f0160208091040260200160405190810160405280939291908181526020018383808284376000920191909152506111d292505050565b808873ffffffffffffffffffffffffffffffffffffffff168a73ffffffffffffffffffffffffffffffffffffffff167ff6891c84a6c6af32a6d052172a8acc4c631b1d5057ffa2bc1da268b6938ea2da60405160405180910390a4610749818a8a61128f565b6000610f9d3386611115565b9050610fe28186868887878080601f0160208091040260200160405190810160405280939291908181526020018383808284376000920191909152506111d292505050565b610fed81338761128f565b5050505050565b610ffc6115ec565b610bfc81611a2f565b61100d611922565b3360009081526009602052604081205490819003611057576040517f1625491a00000000000000000000000000000000000000000000000000000000815260040160405180910390fd5b61106181836113d8565b5050565b61106d6115ec565b6001805473ffffffffffffffffffffffffffffffffffffffff83167fffffffffffffffffffffffff000000000000000000000000000000000000000090911681179091556110d060005473ffffffffffffffffffffffffffffffffffffffff1690565b73ffffffffffffffffffffffffffffffffffffffff167f38d16b8cac22d99fc7c124b9cd0de2d3fa1faef420bfe791d8c362d765e2270060405160405180910390a350565b73ffffffffffffffffffffffffffffffffffffffff821660009081526009602052604081205490819003611175576040517f1625491a00000000000000000000000000000000000000000000000000000000815260040160405180910390fd5b73ffffffffffffffffffffffffffffffffffffffff821660009081526009602052604090205415610a62576040517f9ab56e7200000000000000000000000000000000000000000000000000000000815260040160405180910390fd5b610fed6112877fa53d4816e6db02c5afbc1b672f637e843e95a1607999a35089472baf1e61773c878761122f8773ffffffffffffffffffffffffffffffffffffffff16600090815260076020526040902080546001810190915590565b60408051602081019590955284019290925273ffffffffffffffffffffffffffffffffffffffff166060830152608082015260a0810186905260c0015b604051602081830303815290604052805190602001206116bc565b838584611b14565b611297611922565b73ffffffffffffffffffffffffffffffffffffffff8082166000818152600960208181526040808420899055888452600a825280842080547fffffffffffffffffffffffff0000000000000000000000000000000000000000168617905594871680845291905283822082905592518693917fddf252ad1be2c89b69c2b068fc378daa952ba7f163c4a11628f55a4df523b3ef91a4505050565b6109896112877f2525509c0201b8d945070abcd5017557766efc6b7db2fa8d412e06de93f6d24f88888861138f8873ffffffffffffffffffffffffffffffffffffffff16600090815260076020526040902080546001810190915590565b60408051602081019690965285019390935273ffffffffffffffffffffffffffffffffffffffff918216606085015216608083015260a082015260c0810186905260e00161126c565b6113e0611922565b6000828152600b602052604080822080547fffffffffffffffffffffffff00000000000000000000000000000000000000001673ffffffffffffffffffffffffffffffffffffffff85169081179091559051909184917f8e700b803af43e14651431cd73c9fe7d11b131ad797576a70b893ce5766f65c39190a35050565b6115066114fe7fda015cfdaa9f5cc1c418ff1c04a4cbd09fcecc68838ea2e0ec2bb42ce17da78186866114bb8973ffffffffffffffffffffffffffffffffffffffff16600090815260076020526040902080546001810190915590565b60408051602081019590955273ffffffffffffffffffffffffffffffffffffffff9384169085015291166060830152608082015260a0810185905260c00161126c565b858484611b14565b50505050565b60006003546001036115695760025473ffffffffffffffffffffffffffffffffffffffff163314611569576040517ff35a1b0000000000000000000000000000000000000000000000000000000000815260040160405180910390fd5b6115738383611b8f565b90508273ffffffffffffffffffffffffffffffffffffffff167ff2e19a901b0748d8b08e428d0468896a039ac751ec4fec49b44b7b9c28097e45600854846040516115de92919091825273ffffffffffffffffffffffffffffffffffffffff16602082015260400190565b60405180910390a292915050565b60005473ffffffffffffffffffffffffffffffffffffffff163314610a54576040517f118cdaa7000000000000000000000000000000000000000000000000000000008152336004820152602401610bea565b611647611c86565b600480547fffffffffffffffffffffffffffffffffffffffffffffffffffffffffffffff001690557f5db9ee0a495bf2e6ff9c91a7834c1ba4fdd244a5e8aa4e537bd38aeae4b073aa335b60405173ffffffffffffffffffffffffffffffffffffffff909116815260200160405180910390a1565b6000610a626116c9611735565b836040517f19010000000000000000000000000000000000000000000000000000000000008152600281019290925260228201526042902090565b600180547fffffffffffffffffffffffff0000000000000000000000000000000000000000169055610bfc81611cc2565b60003073ffffffffffffffffffffffffffffffffffffffff7f00000000000000000000000000000000000000000000000000000000000000001614801561179b57507f000000000000000000000000000000000000000000000000000000000000000046145b156117c557507f000000000000000000000000000000000000000000000000000000000000000090565b610b2a604080517f8b73c3c69bb8fe3d512ecc4cf759cc79239f7b179b0ffacaa9a75d522b39400f60208201527f0000000000000000000000000000000000000000000000000000000000000000918101919091527f000000000000000000000000000000000000000000000000000000000000000060608201524660808201523060a082015260009060c00160405160208183030381529060405280519060200120905090565b611875611922565b600480547fffffffffffffffffffffffffffffffffffffffffffffffffffffffffffffff001660011790557f62e78cea01bee320cd4e420270b5ea74000d11b0c9f74754ebdbfc544b05a2586116923390565b6060610b2a7f00000000000000000000000000000000000000000000000000000000000000006005611d37565b6060610b2a7f00000000000000000000000000000000000000000000000000000000000000006006611d37565b60045460ff1615610a54576040517fd93c066500000000000000000000000000000000000000000000000000000000815260040160405180910390fd5b6109896112877f1b349d8c89be7a829b7ecc4bfec68d3943512516a783b90dc5d0438f504bf0a488888861138f8873ffffffffffffffffffffffffffffffffffffffff16600090815260076020526040902080546001810190915590565b60008060006119cc8585611de2565b50909250905060008160038111156119e6576119e6612555565b148015611a1e57508573ffffffffffffffffffffffffffffffffffffffff168273ffffffffffffffffffffffffffffffffffffffff16145b80610a3a5750610a3a868686611e2f565b73ffffffffffffffffffffffffffffffffffffffff8116611a7c576040517fc765f93200000000000000000000000000000000000000000000000000000000815260040160405180910390fd5b60025460405133815273ffffffffffffffffffffffffffffffffffffffff8381169216907ff49aa3de84c4496d3a942511e6d2319eb43aff3afa8072a0cb18f9cc55a0359f9060200160405180910390a3600280547fffffffffffffffffffffffff00000000000000000000000000000000000000001673ffffffffffffffffffffffffffffffffffffffff92909216919091179055565b81421115611b4e576040517f0819bdcd00000000000000000000000000000000000000000000000000000000815260040160405180910390fd5b611b598385836119bd565b611506576040517f8baa579f00000000000000000000000000000000000000000000000000000000815260040160405180910390fd5b6000611b99611922565b73ffffffffffffffffffffffffffffffffffffffff831660009081526009602052604090205415611bf6576040517f9ab56e7200000000000000000000000000000000000000000000000000000000815260040160405180910390fd5b600860008154611c0590612584565b918290555073ffffffffffffffffffffffffffffffffffffffff9384166000818152600960209081526040808320859055848352600a825280832080547fffffffffffffffffffffffff00000000000000000000000000000000000000009081169095179055600b9091529020805494909516931692909217909255919050565b60045460ff16610a54576040517f8dfc202b00000000000000000000000000000000000000000000000000000000815260040160405180910390fd5b6000805473ffffffffffffffffffffffffffffffffffffffff8381167fffffffffffffffffffffffff0000000000000000000000000000000000000000831681178455604051919092169283917f8be0079c531659141344cd1fd0a4f28419497f9722a3daafe3b4186f6b6457e09190a35050565b606060ff8314611d5157611d4a83611f7c565b9050610a62565b818054611d5d906125e3565b80601f0160208091040260200160405190810160405280929190818152602001828054611d89906125e3565b8015611dd65780601f10611dab57610100808354040283529160200191611dd6565b820191906000526020600020905b815481529060010190602001808311611db957829003601f168201915b50505050509050610a62565b60008060008351604103611e1c5760208401516040850151606086015160001a611e0e88828585611fbb565b955095509550505050611e28565b50508151600091506002905b9250925092565b60008060008573ffffffffffffffffffffffffffffffffffffffff168585604051602401611e5e929190612636565b604080517fffffffffffffffffffffffffffffffffffffffffffffffffffffffffffffffe08184030181529181526020820180517bffffffffffffffffffffffffffffffffffffffffffffffffffffffff167f1626ba7e0000000000000000000000000000000000000000000000000000000017905251611edf9190612657565b600060405180830381855afa9150503d8060008114611f1a576040519150601f19603f3d011682016040523d82523d6000602084013e611f1f565b606091505b5091509150818015611f3357506020815110155b8015610a3a575080517f1626ba7e0000000000000000000000000000000000000000000000000000000090611f719083016020908101908401612673565b149695505050505050565b60606000611f89836120b5565b604080516020808252818301909252919250600091906020820181803683375050509182525060208101929092525090565b600080807f7fffffffffffffffffffffffffffffff5d576e7357a4501ddfe92f46681b20a0841115611ff657506000915060039050826120ab565b604080516000808252602082018084528a905260ff891692820192909252606081018790526080810186905260019060a0016020604051602081039080840390855afa15801561204a573d6000803e3d6000fd5b50506040517fffffffffffffffffffffffffffffffffffffffffffffffffffffffffffffffe0015191505073ffffffffffffffffffffffffffffffffffffffff81166120a1575060009250600191508290506120ab565b9250600091508190505b9450945094915050565b600060ff8216601f811115610a62576040517fb3512b0c00000000000000000000000000000000000000000000000000000000815260040160405180910390fd5b803573ffffffffffffffffffffffffffffffffffffffff8116811461211a57600080fd5b919050565b60008083601f84011261213157600080fd5b50813567ffffffffffffffff81111561214957600080fd5b60208301915083602082850101111561216157600080fd5b9250929050565b60008060008060008060008060c0898b03121561218457600080fd5b61218d896120f6565b975061219b60208a016120f6565b965060408901359550606089013567ffffffffffffffff808211156121bf57600080fd5b6121cb8c838d0161211f565b909750955060808b0135945060a08b01359150808211156121eb57600080fd5b506121f88b828c0161211f565b999c989b5096995094979396929594505050565b60008060008060006080868803121561222457600080fd5b61222d866120f6565b945061223b602087016120f6565b935060408601359250606086013567ffffffffffffffff81111561225e57600080fd5b61226a8882890161211f565b969995985093965092949392505050565b60006020828403121561228d57600080fd5b612296826120f6565b9392505050565b6000602082840312156122af57600080fd5b5035919050565b600080600080600080600080600060e08a8c0312156122d457600080fd5b6122dd8a6120f6565b98506122eb60208b016120f6565b97506122f960408b016120f6565b965060608a0135955060808a013567ffffffffffffffff8082111561231d57600080fd5b6123298d838e0161211f565b909750955060a08c0135945060c08c013591508082111561234957600080fd5b506123568c828d0161211f565b915080935050809150509295985092959850929598565b60005b83811015612388578181015183820152602001612370565b50506000910152565b600081518084526123a981602086016020860161236d565b601f017fffffffffffffffffffffffffffffffffffffffffffffffffffffffffffffffe0169290920160200192915050565b7fff00000000000000000000000000000000000000000000000000000000000000881681526000602060e0602084015261241860e084018a612391565b838103604085015261242a818a612391565b6060850189905273ffffffffffffffffffffffffffffffffffffffff8816608086015260a0850187905284810360c08601528551808252602080880193509091019060005b8181101561248b5783518352928401929184019160010161246f565b50909c9b505050505050505050505050565b6020815260006122966020830184612391565b6000806000806000608086880312156124c857600080fd5b6124d1866120f6565b94506020860135935060408601359250606086013567ffffffffffffffff81111561225e57600080fd5b6000806000806060858703121561251157600080fd5b61251a856120f6565b935060208501359250604085013567ffffffffffffffff81111561253d57600080fd5b6125498782880161211f565b95989497509550505050565b7f4e487b7100000000000000000000000000000000000000000000000000000000600052602160045260246000fd5b60007fffffffffffffffffffffffffffffffffffffffffffffffffffffffffffffffff82036125dc577f4e487b7100000000000000000000000000000000000000000000000000000000600052601160045260246000fd5b5060010190565b600181811c908216806125f757607f821691505b602082108103612630577f4e487b7100000000000000000000000000000000000000000000000000000000600052602260045260246000fd5b50919050565b82815260406020820152600061264f6040830184612391565b949350505050565b6000825161266981846020870161236d565b9190910192915050565b60006020828403121561268557600080fd5b505191905056fea2646970667358221220f1b1ecf5875038508850b339896dba31b8f0a4764157a4d5f463315cf50b9cc364736f6c63430008170033","linkReferences":{}},"methodIdentifiers":{"CHANGE_RECOVERY_ADDRESS_TYPEHASH()":"d5bac7f3","NAME()":"a3f4df7e","REGISTER_TYPEHASH()":"6a5306a3","TRANSFER_AND_CHANGE_RECOVERY_TYPEHASH()":"ea2bbb83","TRANSFER_TYPEHASH()":"00bf26f4","VERSION()":"ffa1ad74","acceptOwnership()":"79ba5097","changeRecoveryAddress(address)":"f1f0b224","changeRecoveryAddressFor(address,address,uint256,bytes)":"9cbef8dc","custodyOf(uint256)":"65269e47","disableTrustedOnly()":"6e9bde49","domainSeparatorV4()":"78e890ba","eip712Domain()":"84b0196e","hashTypedDataV4(bytes32)":"4980f288","idCounter()":"eb08ab28","idOf(address)":"d94fe832","nonces(address)":"7ecebe00","owner()":"8da5cb5b","pause()":"8456cb59","paused()":"5c975abb","pendingOwner()":"e30c3978","recover(address,address,uint256,bytes)":"2a42ede3","recoverFor(address,address,uint256,bytes,uint256,bytes)":"ba656434","recoveryOf(uint256)":"fa1a1b25","register(address)":"4420e486","registerFor(address,address,uint256,bytes)":"3efa0b02","renounceOwnership()":"715018a6","setTrustedCaller(address)":"ea40ae14","transfer(address,uint256,bytes)":"be45fd62","transferAndChangeRecovery(address,address,uint256,bytes)":"3ab8465d","transferAndChangeRecoveryFor(address,address,address,uint256,bytes,uint256,bytes)":"4c5cbb34","transferFor(address,address,uint256,bytes,uint256,bytes)":"16f72842","transferOwnership(address)":"f2fde38b","trustedCaller()":"268f0760","trustedOnly()":"6b2ddd4e","unpause()":"3f4ba83a","useNonce()":"69615a4c","verifyRidSignature(address,uint256,bytes32,bytes)":"affeb2ad"},"id":36}