{"abi":[{"type":"constructor","inputs":[{"name":"_idRegistry","type":"address","internalType":"address"},{"name":"_delegateRegistry","type":"address","internalType":"address"},{"name":"_channelRegistry","type":"address","internalType":"address"}],"stateMutability":"nonpayable"},{"type":"function","name":"ADD_BATCH_TYPEHASH","inputs":[],"outputs":[{"name":"","type":"bytes32","internalType":"bytes32"}],"stateMutability":"view"},{"type":"function","name":"ADD_TYPEHASH","inputs":[],"outputs":[{"name":"","type":"bytes32","internalType":"bytes32"}],"stateMutability":"view"},{"type":"function","name":"CHANNEL_SALT","inputs":[],"outputs":[{"name":"","type":"bytes32","internalType":"bytes32"}],"stateMutability":"view"},{"type":"function","name":"EDIT_TYPEHASH","inputs":[],"outputs":[{"name":"","type":"bytes32","internalType":"bytes32"}],"stateMutability":"view"},{"type":"function","name":"ITEM_SALT","inputs":[],"outputs":[{"name":"","type":"bytes32","internalType":"bytes32"}],"stateMutability":"view"},{"type":"function","name":"NEW_ITEMS_TYPEHASH","inputs":[],"outputs":[{"name":"","type":"bytes32","internalType":"bytes32"}],"stateMutability":"view"},{"type":"function","name":"REMOVE_TYPEHASH","inputs":[],"outputs":[{"name":"","type":"bytes32","internalType":"bytes32"}],"stateMutability":"view"},{"type":"function","name":"UPDATE_ADMINS_TYPEHASH","inputs":[],"outputs":[{"name":"","type":"bytes32","internalType":"bytes32"}],"stateMutability":"view"},{"type":"function","name":"add","inputs":[{"name":"userId","type":"uint256","internalType":"uint256"},{"name":"itemId","type":"bytes32","internalType":"bytes32"},{"name":"channelId","type":"bytes32","internalType":"bytes32"}],"outputs":[],"stateMutability":"nonpayable"},{"type":"function","name":"addBatch","inputs":[{"name":"userId","type":"uint256","internalType":"uint256"},{"name":"itemId","type":"bytes32","internalType":"bytes32"},{"name":"channelIds","type":"bytes32[]","internalType":"bytes32[]"}],"outputs":[],"stateMutability":"nonpayable"},{"type":"function","name":"addBatchFor","inputs":[{"name":"signer","type":"address","internalType":"address"},{"name":"userId","type":"uint256","internalType":"uint256"},{"name":"itemId","type":"bytes32","internalType":"bytes32"},{"name":"channelIds","type":"bytes32[]","internalType":"bytes32[]"},{"name":"deadline","type":"uint256","internalType":"uint256"},{"name":"sig","type":"bytes","internalType":"bytes"}],"outputs":[],"stateMutability":"nonpayable"},{"type":"function","name":"addFor","inputs":[{"name":"signer","type":"address","internalType":"address"},{"name":"userId","type":"uint256","internalType":"uint256"},{"name":"itemId","type":"bytes32","internalType":"bytes32"},{"name":"channelId","type":"bytes32","internalType":"bytes32"},{"name":"deadline","type":"uint256","internalType":"uint256"},{"name":"sig","type":"bytes","internalType":"bytes"}],"outputs":[],"stateMutability":"nonpayable"},{"type":"function","name":"addedItemToChannel","inputs":[{"name":"itemId","type":"bytes32","internalType":"bytes32"},{"name":"channelId","type":"bytes32","internalType":"bytes32"}],"outputs":[{"name":"userId","type":"uint256","internalType":"uint256"}],"stateMutability":"view"},{"type":"function","name":"channelRegistry","inputs":[],"outputs":[{"name":"","type":"address","internalType":"contract ChannelRegistry"}],"stateMutability":"view"},{"type":"function","name":"dataForItem","inputs":[{"name":"itemId","type":"bytes32","internalType":"bytes32"}],"outputs":[{"name":"pointer","type":"address","internalType":"address"}],"stateMutability":"view"},{"type":"function","name":"delegateRegistry","inputs":[],"outputs":[{"name":"","type":"address","internalType":"contract DelegateRegistry"}],"stateMutability":"view"},{"type":"function","name":"domainSeparatorV4","inputs":[],"outputs":[{"name":"","type":"bytes32","internalType":"bytes32"}],"stateMutability":"view"},{"type":"function","name":"edit","inputs":[{"name":"userId","type":"uint256","internalType":"uint256"},{"name":"itemId","type":"bytes32","internalType":"bytes32"},{"name":"data","type":"bytes","internalType":"bytes"}],"outputs":[{"name":"pointer","type":"address","internalType":"address"}],"stateMutability":"nonpayable"},{"type":"function","name":"editFor","inputs":[{"name":"signer","type":"address","internalType":"address"},{"name":"userId","type":"uint256","internalType":"uint256"},{"name":"itemId","type":"bytes32","internalType":"bytes32"},{"name":"data","type":"bytes","internalType":"bytes"},{"name":"deadline","type":"uint256","internalType":"uint256"},{"name":"sig","type":"bytes","internalType":"bytes"}],"outputs":[{"name":"pointer","type":"address","internalType":"address"}],"stateMutability":"nonpayable"},{"type":"function","name":"eip712Domain","inputs":[],"outputs":[{"name":"fields","type":"bytes1","internalType":"bytes1"},{"name":"name","type":"string","internalType":"string"},{"name":"version","type":"string","internalType":"string"},{"name":"chainId","type":"uint256","internalType":"uint256"},{"name":"verifyingContract","type":"address","internalType":"address"},{"name":"salt","type":"bytes32","internalType":"bytes32"},{"name":"extensions","type":"uint256[]","internalType":"uint256[]"}],"stateMutability":"view"},{"type":"function","name":"generateItemHash","inputs":[{"name":"userId","type":"uint256","internalType":"uint256"},{"name":"itemId","type":"uint256","internalType":"uint256"}],"outputs":[{"name":"","type":"bytes32","internalType":"bytes32"}],"stateMutability":"pure"},{"type":"function","name":"hashTypedDataV4","inputs":[{"name":"structHash","type":"bytes32","internalType":"bytes32"}],"outputs":[{"name":"","type":"bytes32","internalType":"bytes32"}],"stateMutability":"view"},{"type":"function","name":"idRegistry","inputs":[],"outputs":[{"name":"","type":"address","internalType":"contract IdRegistry"}],"stateMutability":"view"},{"type":"function","name":"isAdminForItem","inputs":[{"name":"itemId","type":"bytes32","internalType":"bytes32"},{"name":"userId","type":"uint256","internalType":"uint256"}],"outputs":[{"name":"status","type":"bool","internalType":"bool"}],"stateMutability":"view"},{"type":"function","name":"itemCountForUser","inputs":[{"name":"userId","type":"uint256","internalType":"uint256"}],"outputs":[{"name":"itemCount","type":"uint256","internalType":"uint256"}],"stateMutability":"view"},{"type":"function","name":"itemUri","inputs":[{"name":"itemId","type":"bytes32","internalType":"bytes32"}],"outputs":[{"name":"uri","type":"string","internalType":"string"}],"stateMutability":"view"},{"type":"function","name":"newItems","inputs":[{"name":"userId","type":"uint256","internalType":"uint256"},{"name":"inits","type":"tuple[]","internalType":"struct IItemRegistry.Init[]","components":[{"name":"data","type":"bytes","internalType":"bytes"},{"name":"channels","type":"bytes32[]","internalType":"bytes32[]"}]}],"outputs":[{"name":"itemIds","type":"bytes32[]","internalType":"bytes32[]"},{"name":"pointers","type":"address[]","internalType":"address[]"}],"stateMutability":"nonpayable"},{"type":"function","name":"newItemsFor","inputs":[{"name":"signer","type":"address","internalType":"address"},{"name":"userId","type":"uint256","internalType":"uint256"},{"name":"inits","type":"tuple[]","internalType":"struct IItemRegistry.Init[]","components":[{"name":"data","type":"bytes","internalType":"bytes"},{"name":"channels","type":"bytes32[]","internalType":"bytes32[]"}]},{"name":"deadline","type":"uint256","internalType":"uint256"},{"name":"sig","type":"bytes","internalType":"bytes"}],"outputs":[{"name":"itemIds","type":"bytes32[]","internalType":"bytes32[]"},{"name":"pointers","type":"address[]","internalType":"address[]"}],"stateMutability":"nonpayable"},{"type":"function","name":"remove","inputs":[{"name":"userId","type":"uint256","internalType":"uint256"},{"name":"itemId","type":"bytes32","internalType":"bytes32"},{"name":"channelId","type":"bytes32","internalType":"bytes32"}],"outputs":[],"stateMutability":"nonpayable"},{"type":"function","name":"removeFor","inputs":[{"name":"signer","type":"address","internalType":"address"},{"name":"userId","type":"uint256","internalType":"uint256"},{"name":"itemId","type":"bytes32","internalType":"bytes32"},{"name":"channelId","type":"bytes32","internalType":"bytes32"},{"name":"deadline","type":"uint256","internalType":"uint256"},{"name":"sig","type":"bytes","internalType":"bytes"}],"outputs":[],"stateMutability":"nonpayable"},{"type":"function","name":"self","inputs":[],"outputs":[{"name":"","type":"address","internalType":"address"}],"stateMutability":"view"},{"type":"function","name":"updateAdmins","inputs":[{"name":"userId","type":"uint256","internalType":"uint256"},{"name":"itemId","type":"bytes32","internalType":"bytes32"},{"name":"userIds","type":"uint256[]","internalType":"uint256[]"},{"name":"statuses","type":"bool[]","internalType":"bool[]"}],"outputs":[],"stateMutability":"nonpayable"},{"type":"function","name":"updateAdminsFor","inputs":[{"name":"signer","type":"address","internalType":"address"},{"name":"userId","type":"uint256","internalType":"uint256"},{"name":"itemId","type":"bytes32","internalType":"bytes32"},{"name":"userIds","type":"uint256[]","internalType":"uint256[]"},{"name":"statuses","type":"bool[]","internalType":"bool[]"},{"name":"deadline","type":"uint256","internalType":"uint256"},{"name":"sig","type":"bytes","internalType":"bytes"}],"outputs":[],"stateMutability":"nonpayable"},{"type":"event","name":"Add","inputs":[{"name":"sender","type":"address","indexed":false,"internalType":"address"},{"name":"userId","type":"uint256","indexed":false,"internalType":"uint256"},{"name":"itemId","type":"bytes32","indexed":false,"internalType":"bytes32"},{"name":"channelId","type":"bytes32","indexed":false,"internalType":"bytes32"}],"anonymous":false},{"type":"event","name":"EIP712DomainChanged","inputs":[],"anonymous":false},{"type":"event","name":"Edit","inputs":[{"name":"sender","type":"address","indexed":false,"internalType":"address"},{"name":"userId","type":"uint256","indexed":false,"internalType":"uint256"},{"name":"itemId","type":"bytes32","indexed":false,"internalType":"bytes32"},{"name":"pointer","type":"address","indexed":false,"internalType":"address"}],"anonymous":false},{"type":"event","name":"New","inputs":[{"name":"sender","type":"address","indexed":false,"internalType":"address"},{"name":"userId","type":"uint256","indexed":false,"internalType":"uint256"},{"name":"itemId","type":"bytes32","indexed":false,"internalType":"bytes32"},{"name":"pointer","type":"address","indexed":false,"internalType":"address"}],"anonymous":false},{"type":"event","name":"Remove","inputs":[{"name":"sender","type":"address","indexed":false,"internalType":"address"},{"name":"userId","type":"uint256","indexed":false,"internalType":"uint256"},{"name":"itemId","type":"bytes32","indexed":false,"internalType":"bytes32"},{"name":"channelId","type":"bytes32","indexed":false,"internalType":"bytes32"}],"anonymous":false},{"type":"event","name":"UpdateAdmins","inputs":[{"name":"sender","type":"address","indexed":false,"internalType":"address"},{"name":"userId","type":"uint256","indexed":false,"internalType":"uint256"},{"name":"itemId","type":"bytes32","indexed":false,"internalType":"bytes32"},{"name":"userIds","type":"uint256[]","indexed":false,"internalType":"uint256[]"},{"name":"statuses","type":"bool[]","indexed":false,"internalType":"bool[]"}],"anonymous":false},{"type":"error","name":"Input_Length_Mismatch","inputs":[]},{"type":"error","name":"InvalidCodeAtRange","inputs":[{"name":"_size","type":"uint256","internalType":"uint256"},{"name":"_start","type":"uint256","internalType":"uint256"},{"name":"_end","type":"uint256","internalType":"uint256"}]},{"type":"error","name":"InvalidShortString","inputs":[]},{"type":"error","name":"InvalidSignature","inputs":[]},{"type":"error","name":"No_Add_Access","inputs":[]},{"type":"error","name":"No_Edit_Access","inputs":[]},{"type":"error","name":"No_Remove_Access","inputs":[]},{"type":"error","name":"Only_Admin","inputs":[]},{"type":"error","name":"SignatureExpired","inputs":[]},{"type":"error","name":"StringTooLong","inputs":[{"name":"str","type":"string","internalType":"string"}]},{"type":"error","name":"Unauthorized_Signer_For_User","inputs":[{"name":"userId","type":"uint256","internalType":"uint256"}]},{"type":"error","name":"WriteError","inputs":[]}],"bytecode":{"object":"0x6101806040523480156200001257600080fd5b506040516200393838038062003938833981016040819052620000359162000215565b604080518082018252600c81526b4974656d526567697374727960a01b602080830191909152825180840190935260018352603160f81b908301529081816200008082600062000173565b610120526200009181600162000173565b61014052815160208084019190912060e052815190820120610100524660a0526200011f60e05161010051604080517f8b73c3c69bb8fe3d512ecc4cf759cc79239f7b179b0ffacaa9a75d522b39400f60208201529081019290925260608201524660808201523060a082015260009060c00160405160208183030381529060405280519060200120905090565b60805250503060c0819052610160525050600280546001600160a01b039485166001600160a01b03199182161790915560038054938516938216939093179092556004805491909316911617905562000448565b600060208351101562000193576200018b83620001ac565b9050620001a6565b81620001a0848262000306565b5060ff90505b92915050565b600080829050601f81511115620001e3578260405163305a27a960e01b8152600401620001da9190620003d2565b60405180910390fd5b8051620001f08262000423565b179392505050565b80516001600160a01b03811681146200021057600080fd5b919050565b6000806000606084860312156200022b57600080fd5b6200023684620001f8565b92506200024660208501620001f8565b91506200025660408501620001f8565b90509250925092565b634e487b7160e01b600052604160045260246000fd5b600181811c908216806200028a57607f821691505b602082108103620002ab57634e487b7160e01b600052602260045260246000fd5b50919050565b601f82111562000301576000816000526020600020601f850160051c81016020861015620002dc5750805b601f850160051c820191505b81811015620002fd57828155600101620002e8565b5050505b505050565b81516001600160401b038111156200032257620003226200025f565b6200033a8162000333845462000275565b84620002b1565b602080601f831160018114620003725760008415620003595750858301515b600019600386901b1c1916600185901b178555620002fd565b600085815260208120601f198616915b82811015620003a35788860151825594840194600190910190840162000382565b5085821015620003c25787850151600019600388901b60f8161c191681555b5050505050600190811b01905550565b60006020808352835180602085015260005b818110156200040257858101830151858201604001528201620003e4565b506000604082860101526040601f19601f8301168501019250505092915050565b80516020808301519190811015620002ab5760001960209190910360031b1b16919050565b60805160a05160c05160e05161010051610120516101405161016051613483620004b5600039600081816103d90152610d69015260006119f0015260006119c30152600061196b015260006119430152600061189e015260006118c8015260006118f201526134836000f3fe608060405234801561001057600080fd5b506004361061020b5760003560e01c806373ca917e1161012a578063a9b7e316116100bd578063b5f7e1bf1161008c578063f12f9cfb11610071578063f12f9cfb146105c2578063f636f68f146105e9578063fa137826146105fc57600080fd5b8063b5f7e1bf14610588578063b844e47e1461059b57600080fd5b8063a9b7e316146104fc578063ab583c1b1461050f578063aca2974f14610536578063b57755611461056157600080fd5b806390dbd78f116100f957806390dbd78f1461045757806392bc99c61461047757806392d9cd0714610497578063a4fb4a55146104d557600080fd5b806373ca917e1461040e57806374b246261461042157806378e890ba1461043457806384b0196e1461043c57600080fd5b80634980f288116101a25780636977cbee116101715780636977cbee146103a05780636b705916146103c15780637104ddb2146103d457806371375089146103fb57600080fd5b80634980f288146103525780634fc1b4ea146103655780635b6f6bd51461037a57806365e5c5d31461038d57600080fd5b806313bfffac116101de57806313bfffac146102b65780632024e685146102d6578063287b1d321461030b578063442ea9191461033257600080fd5b80630a454a23146102105780630aa13b8c146102705780631020153114610290578063124024dd146102a3575b600080fd5b61024661021e3660046124b2565b60066020526000908152604090205473ffffffffffffffffffffffffffffffffffffffff1681565b60405173ffffffffffffffffffffffffffffffffffffffff90911681526020015b60405180910390f35b6002546102469073ffffffffffffffffffffffffffffffffffffffff1681565b61024661029e366004612514565b610623565b6102466102b136600461258c565b61066a565b6003546102469073ffffffffffffffffffffffffffffffffffffffff1681565b6102fd7fc4386cc4c48da616374a174133e50d1059ca3404efd66e75be1f4fb47234752a81565b604051908152602001610267565b6102fd7f5f256d4d41cdd6566da602a693a45bea0945b8e1b498c3b5d428d60d40a6206f81565b6004546102469073ffffffffffffffffffffffffffffffffffffffff1681565b6102fd6103603660046124b2565b6106fb565b61037861037336600461262b565b61070c565b005b610378610388366004612807565b61074d565b61037861039b36600461262b565b610790565b6103b36103ae3660046129fd565b6107cb565b604051610267929190612a8d565b6103b36103cf366004612b1e565b61085b565b6102467f000000000000000000000000000000000000000000000000000000000000000081565b610378610409366004612baa565b6108a4565b61037861041c366004612c08565b61095b565b61037861042f366004612c08565b6109e4565b6102fd610a63565b610444610a72565b6040516102679796959493929190612d2f565b6102fd6104653660046124b2565b60056020526000908152604090205481565b61048a6104853660046124b2565b610ad4565b6040516102679190612db8565b6104c56104a5366004612dcb565b600760209081526000928352604080842090915290825290205460ff1681565b6040519015158152602001610267565b6102fd7fb9be7888f4f8043e94e98ce5c427115c6bf5ccb07af32dea0c5cec8e04d2850081565b6102fd61050a366004612dcb565b610bf2565b6102fd7f8c4d9db01ad813d5a8127a7471a1708a07404ab53862073ce40ecbbd6c8e7b9681565b6102fd610544366004612dcb565b600860209081526000928352604080842090915290825290205481565b6102fd7f30953de396d34661e8856774c49d42cf0210e7bd30428a0270de719e0ca40cd481565b610378610596366004612ded565b610c50565b6102fd7fd74416be5a0f22763f73a0a923d9377b0b124062ba89b1de75e6f905f7cb083681565b6102fd7f538128fcb8bfa345216983adce47d9643bfc792f66753552435e96bd68ba0b2381565b6103786105f7366004612e34565b610cb2565b6102fd7fbb2bc1c3edff230e367c6b1c0b6370cbe6ae76802e65e80146b0d26a64b8f1fa81565b60008061065186337f1020153100000000000000000000000000000000000000000000000000000000610d3e565b90506106608187878787610d96565b9695505050505050565b60006106b1888888888d8989898080601f016020809104026020016040519081016040528093929190818152602001838380828437600092019190915250610ecd92505050565b60006106de898b7f1020153100000000000000000000000000000000000000000000000000000000610d3e565b90506106ed818a8a8a8a610d96565b9a9950505050505050505050565b600061070682610f3a565b92915050565b600061073984337f4fc1b4ea00000000000000000000000000000000000000000000000000000000610d3e565b905061074781858585610f82565b50505050565b600061077a85337f5b6f6bd500000000000000000000000000000000000000000000000000000000610d3e565b905061078981868686866110dd565b5050505050565b60006107bd84337f65e5c5d300000000000000000000000000000000000000000000000000000000610d3e565b90506107478185858561124e565b60608061081187878a8888888080601f0160208091040260200160405190810160405280939291908181526020018383808284376000920191909152506113bf92505050565b600061083e888a7f6b70591600000000000000000000000000000000000000000000000000000000610d3e565b905061084b8189896113fc565b909a909950975050505050505050565b606080600061088b85337f6b70591600000000000000000000000000000000000000000000000000000000610d3e565b90506108988186866113fc565b90969095509350505050565b6108e9878787878c8888888080601f01602080910402602001604051908101604052809392919081815260200183838082843760009201919091525061179992505050565b6000610916888a7f4fc1b4ea00000000000000000000000000000000000000000000000000000000610d3e565b905060005b8581101561094f57610947828a8a8a8a8681811061093b5761093b612ed1565b90506020020135610f82565b60010161091b565b50505050505050505050565b61099f8686868a8787878080601f0160208091040260200160405190810160405280939291908181526020018383808284376000920191909152506117da92505050565b60006109cc87897f4fc1b4ea00000000000000000000000000000000000000000000000000000000610d3e565b90506109da81888888610f82565b5050505050505050565b610a288686868a8787878080601f01602080910402602001604051908101604052809392919081815260200183838082843760009201919091525061182f92505050565b6000610a5587897f65e5c5d300000000000000000000000000000000000000000000000000000000610d3e565b90506109da8188888861124e565b6000610a6d611884565b905090565b600060608060008060006060610a866119bc565b610a8e6119e9565b604080516000808252602082019092527f0f000000000000000000000000000000000000000000000000000000000000009b939a50919850469750309650945092509050565b60008181526006602052604081205460609190610b069073ffffffffffffffffffffffffffffffffffffffff16611a16565b90506000610b15826000611a44565b90506000610b31836014808651610b2c9190612f2f565b611ad9565b6040517f316df61e00000000000000000000000000000000000000000000000000000000815290915073ffffffffffffffffffffffffffffffffffffffff83169063316df61e90610b86908490600401612db8565b600060405180830381865afa158015610ba3573d6000803e3d6000fd5b505050506040513d6000823e601f3d9081017fffffffffffffffffffffffffffffffffffffffffffffffffffffffffffffffe0168201604052610be99190810190612f42565b95945050505050565b6040805160208082018590528183018490527fd74416be5a0f22763f73a0a923d9377b0b124062ba89b1de75e6f905f7cb083660608084019190915283518084039091018152608090920190925280519101206000905b9392505050565b6000610c7d85337f4fc1b4ea00000000000000000000000000000000000000000000000000000000610d3e565b905060005b82811015610caa57610ca282878787878681811061093b5761093b612ed1565b600101610c82565b505050505050565b610cf7878787878c8888888080601f016020809104026020016040519081016040528093929190818152602001838380828437600092019190915250611c5392505050565b6000610d24888a7f5b6f6bd500000000000000000000000000000000000000000000000000000000610d3e565b9050610d3381898989896110dd565b505050505050505050565b600254600354600091610d8e9173ffffffffffffffffffffffffffffffffffffffff918216911686867f000000000000000000000000000000000000000000000000000000000000000087611c94565b949350505050565b600083815260076020908152604080832087845290915281205460ff16610de9576040517fb0e3b18800000000000000000000000000000000000000000000000000000000815260040160405180910390fd5b610e2883838080601f016020809104026020016040519081016040528093929190818152602001838380828437600092019190915250611e6392505050565b60008581526006602090815260409182902080547fffffffffffffffffffffffff00000000000000000000000000000000000000001673ffffffffffffffffffffffffffffffffffffffff8581169182179092558351918b16825291810189905291820187905260608201529091507f1eba9e0ae1706f2c86add8b0f6f04928ff51bb37949db006f567af19ce4277499060800160405180910390a195945050505050565b610f31610f297fc4386cc4c48da616374a174133e50d1059ca3404efd66e75be1f4fb47234752a8989898988604051602001610f0e96959493929190612fb0565b60405160208183030381529060405280519060200120610f3a565b848484611eee565b50505050505050565b6000610706610f47611884565b836040517f19010000000000000000000000000000000000000000000000000000000000008152600281019290925260228201526042902090565b600480546040517f5eed714e000000000000000000000000000000000000000000000000000000008152918201859052602482018390526000604483015260019173ffffffffffffffffffffffffffffffffffffffff90911690635eed714e90606401602060405180830381865afa158015611002573d6000803e3d6000fd5b505050506040513d601f19601f82011682018060405250810190611026919061304b565b101561105e576040517facb6b15400000000000000000000000000000000000000000000000000000000815260040160405180910390fd5b6000828152600860209081526040808320848452825291829020859055815173ffffffffffffffffffffffffffffffffffffffff87168152908101859052908101839052606081018290527f107dcf2c99bae149eb8d0dddf3a5dfee724a1762573f5ae628ea553fef3bba8f906080015b60405180910390a150505050565b8051825114611118576040517fa755bb2e00000000000000000000000000000000000000000000000000000000815260040160405180910390fd5b600083815260076020908152604080832087845290915290205460ff1661116b576040517f6289e17d00000000000000000000000000000000000000000000000000000000815260040160405180910390fd5b60005b82518110156112075781818151811061118957611189612ed1565b60200260200101516007600086815260200190815260200160002060008584815181106111b8576111b8612ed1565b602090810291909101810151825281019190915260400160002080547fffffffffffffffffffffffffffffffffffffffffffffffffffffffffffffff001691151591909117905560010161116e565b507f2cd30e12d13fdc1c512e17ffb9b803a032d63e03b919c7c5c4181235a021aa31858585858560405161123f959493929190613097565b60405180910390a15050505050565b6000828152600860209081526040808320848452909152902054831461134a57600480546040517f5eed714e000000000000000000000000000000000000000000000000000000008152918201859052602482018390526001604483015260029173ffffffffffffffffffffffffffffffffffffffff90911690635eed714e90606401602060405180830381865afa1580156112ee573d6000803e3d6000fd5b505050506040513d601f19601f82011682018060405250810190611312919061304b565b101561134a576040517f6fec0a1300000000000000000000000000000000000000000000000000000000815260040160405180910390fd5b6000828152600860209081526040808320848452825280832092909255815173ffffffffffffffffffffffffffffffffffffffff87168152908101859052908101839052606081018290527f16c619684aceee8cdbff7bc2563159481341b1c45f4b9d5ae5608a8afd170cd1906080016110cf565b610789610f297f5f256d4d41cdd6566da602a693a45bea0945b8e1b498c3b5d428d60d40a6206f878786604051602001610f0e94939291906130f0565b606080825167ffffffffffffffff81111561141957611419612657565b604051908082528060200260200182016040528015611442578160200160208202803683370190505b509150825167ffffffffffffffff81111561145f5761145f612657565b604051908082528060200260200182016040528015611488578160200160208202803683370190505b50905060005b83518110156117905760008581526005602052604081208054611513928892916114b7906131d2565b918290555060408051602080820194909452808201929092527fd74416be5a0f22763f73a0a923d9377b0b124062ba89b1de75e6f905f7cb08366060808401919091528151808403909101815260809092019052805191012090565b83828151811061152557611525612ed1565b60200260200101818152505061155784828151811061154657611546612ed1565b602002602001015160000151611e63565b6006600085848151811061156d5761156d612ed1565b6020026020010151815260200190815260200160002060006101000a81548173ffffffffffffffffffffffffffffffffffffffff021916908373ffffffffffffffffffffffffffffffffffffffff16021790558282815181106115d2576115d2612ed1565b602002602001019073ffffffffffffffffffffffffffffffffffffffff16908173ffffffffffffffffffffffffffffffffffffffff168152505060016007600085848151811061162457611624612ed1565b60200260200101518152602001908152602001600020600087815260200190815260200160002060006101000a81548160ff0219169083151502179055507f66423de90903b1557ce4a917e4b4b8b2abd4f6c6ede91fc703c648da0456f539868685848151811061169757611697612ed1565b60200260200101518585815181106116b1576116b1612ed1565b6020908102919091018101516040805173ffffffffffffffffffffffffffffffffffffffff968716815292830194909452928101919091529116606082015260800160405180910390a160005b84828151811061171057611710612ed1565b602002602001015160200151518110156117875761177f878786858151811061173b5761173b612ed1565b602002602001015188868151811061175557611755612ed1565b602002602001015160200151858151811061177257611772612ed1565b6020026020010151610f82565b6001016116fe565b5060010161148e565b50935093915050565b610f31610f297fbb2bc1c3edff230e367c6b1c0b6370cbe6ae76802e65e80146b0d26a64b8f1fa8989898988604051602001610f0e9695949392919061320a565b604080517f8c4d9db01ad813d5a8127a7471a1708a07404ab53862073ce40ecbbd6c8e7b966020820152908101879052606081018690526080810185905260a08101839052610caa90610f299060c001610f0e565b604080517f30953de396d34661e8856774c49d42cf0210e7bd30428a0270de719e0ca40cd46020820152908101879052606081018690526080810185905260a08101839052610caa90610f299060c001610f0e565b60003073ffffffffffffffffffffffffffffffffffffffff7f0000000000000000000000000000000000000000000000000000000000000000161480156118ea57507f000000000000000000000000000000000000000000000000000000000000000046145b1561191457507f000000000000000000000000000000000000000000000000000000000000000090565b610a6d604080517f8b73c3c69bb8fe3d512ecc4cf759cc79239f7b179b0ffacaa9a75d522b39400f60208201527f0000000000000000000000000000000000000000000000000000000000000000918101919091527f000000000000000000000000000000000000000000000000000000000000000060608201524660808201523060a082015260009060c00160405160208183030381529060405280519060200120905090565b6060610a6d7f00000000000000000000000000000000000000000000000000000000000000006000611f69565b6060610a6d7f00000000000000000000000000000000000000000000000000000000000000006001611f69565b60606107068260017fffffffffffffffffffffffffffffffffffffffffffffffffffffffffffffffff612014565b6000611a51826014613276565b83511015611ac0576040517f08c379a000000000000000000000000000000000000000000000000000000000815260206004820152601560248201527f746f416464726573735f6f75744f66426f756e6473000000000000000000000060448201526064015b60405180910390fd5b5001602001516c01000000000000000000000000900490565b606081611ae781601f613276565b1015611b4f576040517f08c379a000000000000000000000000000000000000000000000000000000000815260206004820152600e60248201527f736c6963655f6f766572666c6f770000000000000000000000000000000000006044820152606401611ab7565b611b598284613276565b84511015611bc3576040517f08c379a000000000000000000000000000000000000000000000000000000000815260206004820152601160248201527f736c6963655f6f75744f66426f756e64730000000000000000000000000000006044820152606401611ab7565b606082158015611be25760405191506000825260208201604052611c4a565b6040519150601f8416801560200281840101858101878315602002848b0101015b81831015611c1b578051835260209283019201611c03565b5050858452601f017fffffffffffffffffffffffffffffffffffffffffffffffffffffffffffffffe016604052505b50949350505050565b610f31610f297f538128fcb8bfa345216983adce47d9643bfc792f66753552435e96bd68ba0b238989898988604051602001610f0e96959493929190613289565b6040517f65269e470000000000000000000000000000000000000000000000000000000081526004810185905260009073ffffffffffffffffffffffffffffffffffffffff8816906365269e4790602401602060405180830381865afa158015611d02573d6000803e3d6000fd5b505050506040513d601f19601f82011682018060405250810190611d2691906132d4565b73ffffffffffffffffffffffffffffffffffffffff168473ffffffffffffffffffffffffffffffffffffffff1614611e58576040517fb4ae4c490000000000000000000000000000000000000000000000000000000081526004810186905273ffffffffffffffffffffffffffffffffffffffff858116602483015284811660448301527fffffffff000000000000000000000000000000000000000000000000000000008416606483015287169063b4ae4c4990608401602060405180830381865afa158015611dfb573d6000803e3d6000fd5b505050506040513d601f19601f82011682018060405250810190611e1f91906132f1565b611e58576040517f532f88b000000000000000000000000000000000000000000000000000000000815260048101869052602401611ab7565b509195945050505050565b600080611e8e83604051602001611e7a919061330e565b604051602081830303815290604052612100565b90508051602082016000f0915073ffffffffffffffffffffffffffffffffffffffff8216611ee8576040517f08d4abb600000000000000000000000000000000000000000000000000000000815260040160405180910390fd5b50919050565b81421115611f28576040517f0819bdcd00000000000000000000000000000000000000000000000000000000815260040160405180910390fd5b611f3383858361212c565b610747576040517f8baa579f00000000000000000000000000000000000000000000000000000000815260040160405180910390fd5b606060ff8314611f8357611f7c8361219e565b9050610706565b818054611f8f90613334565b80601f0160208091040260200160405190810160405280929190818152602001828054611fbb90613334565b80156120085780601f10611fdd57610100808354040283529160200191612008565b820191906000526020600020905b815481529060010190602001808311611feb57829003601f168201915b50505050509050610706565b6060833b6000819003612037575050604080516020810190915260008152610c49565b80841115612055575050604080516020810190915260008152610c49565b838310156120a0576040517f2c4a89fa000000000000000000000000000000000000000000000000000000008152600481018290526024810185905260448101849052606401611ab7565b83830384820360008282106120b557826120b7565b815b60408051603f83017fffffffffffffffffffffffffffffffffffffffffffffffffffffffffffffffe0168101909152818152955090508087602087018a3c505050509392505050565b6060815182604051602001612116929190613381565b6040516020818303038152906040529050919050565b600080600061213b85856121dd565b50909250905060008160038111156121555761215561301c565b14801561218d57508573ffffffffffffffffffffffffffffffffffffffff168273ffffffffffffffffffffffffffffffffffffffff16145b80610660575061066086868661222a565b606060006121ab83612377565b604080516020808252818301909252919250600091906020820181803683375050509182525060208101929092525090565b600080600083516041036122175760208401516040850151606086015160001a612209888285856123b8565b955095509550505050612223565b50508151600091506002905b9250925092565b60008060008573ffffffffffffffffffffffffffffffffffffffff168585604051602401612259929190613418565b604080517fffffffffffffffffffffffffffffffffffffffffffffffffffffffffffffffe08184030181529181526020820180517bffffffffffffffffffffffffffffffffffffffffffffffffffffffff167f1626ba7e00000000000000000000000000000000000000000000000000000000179052516122da9190613431565b600060405180830381855afa9150503d8060008114612315576040519150601f19603f3d011682016040523d82523d6000602084013e61231a565b606091505b509150915081801561232e57506020815110155b8015610660575080517f1626ba7e000000000000000000000000000000000000000000000000000000009061236c908301602090810190840161304b565b149695505050505050565b600060ff8216601f811115610706576040517fb3512b0c00000000000000000000000000000000000000000000000000000000815260040160405180910390fd5b600080807f7fffffffffffffffffffffffffffffff5d576e7357a4501ddfe92f46681b20a08411156123f357506000915060039050826124a8565b604080516000808252602082018084528a905260ff891692820192909252606081018790526080810186905260019060a0016020604051602081039080840390855afa158015612447573d6000803e3d6000fd5b50506040517fffffffffffffffffffffffffffffffffffffffffffffffffffffffffffffffe0015191505073ffffffffffffffffffffffffffffffffffffffff811661249e575060009250600191508290506124a8565b9250600091508190505b9450945094915050565b6000602082840312156124c457600080fd5b5035919050565b60008083601f8401126124dd57600080fd5b50813567ffffffffffffffff8111156124f557600080fd5b60208301915083602082850101111561250d57600080fd5b9250929050565b6000806000806060858703121561252a57600080fd5b8435935060208501359250604085013567ffffffffffffffff81111561254f57600080fd5b61255b878288016124cb565b95989497509550505050565b73ffffffffffffffffffffffffffffffffffffffff8116811461258957600080fd5b50565b60008060008060008060008060c0898b0312156125a857600080fd5b88356125b381612567565b97506020890135965060408901359550606089013567ffffffffffffffff808211156125de57600080fd5b6125ea8c838d016124cb565b909750955060808b0135945060a08b013591508082111561260a57600080fd5b506126178b828c016124cb565b999c989b5096995094979396929594505050565b60008060006060848603121561264057600080fd5b505081359360208301359350604090920135919050565b7f4e487b7100000000000000000000000000000000000000000000000000000000600052604160045260246000fd5b6040805190810167ffffffffffffffff811182821017156126a9576126a9612657565b60405290565b604051601f82017fffffffffffffffffffffffffffffffffffffffffffffffffffffffffffffffe016810167ffffffffffffffff811182821017156126f6576126f6612657565b604052919050565b600067ffffffffffffffff82111561271857612718612657565b5060051b60200190565b600082601f83011261273357600080fd5b81356020612748612743836126fe565b6126af565b8083825260208201915060208460051b87010193508684111561276a57600080fd5b602086015b84811015612786578035835291830191830161276f565b509695505050505050565b801515811461258957600080fd5b600082601f8301126127b057600080fd5b813560206127c0612743836126fe565b8083825260208201915060208460051b8701019350868411156127e257600080fd5b602086015b848110156127865780356127fa81612791565b83529183019183016127e7565b6000806000806080858703121561281d57600080fd5b8435935060208501359250604085013567ffffffffffffffff8082111561284357600080fd5b61284f88838901612722565b9350606087013591508082111561286557600080fd5b506128728782880161279f565b91505092959194509250565b600067ffffffffffffffff82111561289857612898612657565b50601f017fffffffffffffffffffffffffffffffffffffffffffffffffffffffffffffffe01660200190565b600082601f8301126128d557600080fd5b813560206128e5612743836126fe565b82815260059290921b8401810191818101908684111561290457600080fd5b8286015b8481101561278657803567ffffffffffffffff808211156129295760008081fd5b81890191506040807fffffffffffffffffffffffffffffffffffffffffffffffffffffffffffffffe0848d030112156129625760008081fd5b61296a612686565b878401358381111561297c5760008081fd5b8401603f81018d1361298e5760008081fd5b8881013561299e6127438261287e565b8181528e858385010111156129b35760008081fd5b818584018c83013760009181018b01829052835292850135929050838311156129da578081fd5b506129e98c8984870101612722565b818901528652505050918301918301612908565b60008060008060008060a08789031215612a1657600080fd5b8635612a2181612567565b955060208701359450604087013567ffffffffffffffff80821115612a4557600080fd5b612a518a838b016128c4565b9550606089013594506080890135915080821115612a6e57600080fd5b50612a7b89828a016124cb565b979a9699509497509295939492505050565b604080825283519082018190526000906020906060840190828701845b82811015612ac657815184529284019290840190600101612aaa565b5050508381038285015284518082528583019183019060005b81811015612b1157835173ffffffffffffffffffffffffffffffffffffffff1683529284019291840191600101612adf565b5090979650505050505050565b60008060408385031215612b3157600080fd5b82359150602083013567ffffffffffffffff811115612b4f57600080fd5b612b5b858286016128c4565b9150509250929050565b60008083601f840112612b7757600080fd5b50813567ffffffffffffffff811115612b8f57600080fd5b6020830191508360208260051b850101111561250d57600080fd5b60008060008060008060008060c0898b031215612bc657600080fd5b8835612bd181612567565b97506020890135965060408901359550606089013567ffffffffffffffff80821115612bfc57600080fd5b6125ea8c838d01612b65565b600080600080600080600060c0888a031215612c2357600080fd5b8735612c2e81612567565b96506020880135955060408801359450606088013593506080880135925060a088013567ffffffffffffffff811115612c6657600080fd5b612c728a828b016124cb565b989b979a50959850939692959293505050565b60005b83811015612ca0578181015183820152602001612c88565b50506000910152565b60008151808452612cc1816020860160208601612c85565b601f017fffffffffffffffffffffffffffffffffffffffffffffffffffffffffffffffe0169290920160200192915050565b60008151808452602080850194506020840160005b83811015612d2457815187529582019590820190600101612d08565b509495945050505050565b7fff000000000000000000000000000000000000000000000000000000000000008816815260e060208201526000612d6a60e0830189612ca9565b8281036040840152612d7c8189612ca9565b905086606084015273ffffffffffffffffffffffffffffffffffffffff861660808401528460a084015282810360c08401526106ed8185612cf3565b602081526000610c496020830184612ca9565b60008060408385031215612dde57600080fd5b50508035926020909101359150565b60008060008060608587031215612e0357600080fd5b8435935060208501359250604085013567ffffffffffffffff811115612e2857600080fd5b61255b87828801612b65565b60008060008060008060008060e0898b031215612e5057600080fd5b8835612e5b81612567565b97506020890135965060408901359550606089013567ffffffffffffffff80821115612e8657600080fd5b612e928c838d01612722565b965060808b0135915080821115612ea857600080fd5b612eb48c838d0161279f565b955060a08b0135945060c08b013591508082111561260a57600080fd5b7f4e487b7100000000000000000000000000000000000000000000000000000000600052603260045260246000fd5b7f4e487b7100000000000000000000000000000000000000000000000000000000600052601160045260246000fd5b8181038181111561070657610706612f00565b600060208284031215612f5457600080fd5b815167ffffffffffffffff811115612f6b57600080fd5b8201601f81018413612f7c57600080fd5b8051612f8a6127438261287e565b818152856020838501011115612f9f57600080fd5b610be9826020830160208601612c85565b86815285602082015284604082015260a060608201528260a0820152828460c0830137600060c08483010152600060c07fffffffffffffffffffffffffffffffffffffffffffffffffffffffffffffffe0601f8601168301019050826080830152979650505050505050565b7f4e487b7100000000000000000000000000000000000000000000000000000000600052602160045260246000fd5b60006020828403121561305d57600080fd5b5051919050565b60008151808452602080850194506020840160005b83811015612d24578151151587529582019590820190600101613079565b73ffffffffffffffffffffffffffffffffffffffff8616815284602082015283604082015260a0606082015260006130d260a0830185612cf3565b82810360808401526130e48185613064565b98975050505050505050565b6000608082018683526020868185015260406080604086015282875180855260a08701915060a08160051b88010194508389016000805b838110156131b9577fffffffffffffffffffffffffffffffffffffffffffffffffffffffffffffff608a890301855282518051878a52613169888b0182612ca9565b918901518a83038b8b01528051808452908a01928592508a01905b808310156131a45783518252928a019260019290920191908a0190613184565b50995050509386019391860191600101613127565b5050505050606094909401949094529695505050505050565b60007fffffffffffffffffffffffffffffffffffffffffffffffffffffffffffffffff820361320357613203612f00565b5060010190565b86815285602082015284604082015260a060608201528260a082015260007f07ffffffffffffffffffffffffffffffffffffffffffffffffffffffffffffff84111561325557600080fd5b8360051b808660c08501376080830193909352500160c00195945050505050565b8082018082111561070657610706612f00565b86815285602082015284604082015260c0606082015260006132ae60c0830186612cf3565b82810360808401526132c08186613064565b9150508260a0830152979650505050505050565b6000602082840312156132e657600080fd5b8151610c4981612567565b60006020828403121561330357600080fd5b8151610c4981612791565b6000815260008251613327816001850160208701612c85565b9190910160010192915050565b600181811c9082168061334857607f821691505b602082108103611ee8577f4e487b7100000000000000000000000000000000000000000000000000000000600052602260045260246000fd5b7f630000000000000000000000000000000000000000000000000000000000000081527fffffffff000000000000000000000000000000000000000000000000000000008360e01b1660018201527f80600e6000396000f3000000000000000000000000000000000000000000000060058201526000825161340a81600e850160208701612c85565b91909101600e019392505050565b828152604060208201526000610d8e6040830184612ca9565b60008251613443818460208701612c85565b919091019291505056fea26469706673582212207b13001259d342c8ab5f06ac05d7948554964b5ba8e053015578c0f09f115ab764736f6c63430008170033","linkReferences":{}},"methodIdentifiers":{"ADD_BATCH_TYPEHASH()":"fa137826","ADD_TYPEHASH()":"ab583c1b","CHANNEL_SALT()":"a4fb4a55","EDIT_TYPEHASH()":"2024e685","ITEM_SALT()":"b844e47e","NEW_ITEMS_TYPEHASH()":"287b1d32","REMOVE_TYPEHASH()":"b5775561","UPDATE_ADMINS_TYPEHASH()":"f12f9cfb","add(uint256,bytes32,bytes32)":"4fc1b4ea","addBatch(uint256,bytes32,bytes32[])":"b5f7e1bf","addBatchFor(address,uint256,bytes32,bytes32[],uint256,bytes)":"71375089","addFor(address,uint256,bytes32,bytes32,uint256,bytes)":"73ca917e","addedItemToChannel(bytes32,bytes32)":"aca2974f","channelRegistry()":"442ea919","dataForItem(bytes32)":"0a454a23","delegateRegistry()":"13bfffac","domainSeparatorV4()":"78e890ba","edit(uint256,bytes32,bytes)":"10201531","editFor(address,uint256,bytes32,bytes,uint256,bytes)":"124024dd","eip712Domain()":"84b0196e","generateItemHash(uint256,uint256)":"a9b7e316","hashTypedDataV4(bytes32)":"4980f288","idRegistry()":"0aa13b8c","isAdminForItem(bytes32,uint256)":"92d9cd07","itemCountForUser(uint256)":"90dbd78f","itemUri(bytes32)":"92bc99c6","newItems(uint256,(bytes,bytes32[])[])":"6b705916","newItemsFor(address,uint256,(bytes,bytes32[])[],uint256,bytes)":"6977cbee","remove(uint256,bytes32,bytes32)":"65e5c5d3","removeFor(address,uint256,bytes32,bytes32,uint256,bytes)":"74b24626","self()":"7104ddb2","updateAdmins(uint256,bytes32,uint256[],bool[])":"5b6f6bd5","updateAdminsFor(address,uint256,bytes32,uint256[],bool[],uint256,bytes)":"f636f68f"},"id":50}