{"abi":[{"type":"function","name":"sliceMemoryBytesEnd","inputs":[{"name":"inputs","type":"bytes","internalType":"bytes"},{"name":"end","type":"uint256","internalType":"uint256"}],"outputs":[{"name":"","type":"bytes","internalType":"bytes"}],"stateMutability":"pure"},{"type":"function","name":"sliceMemoryBytesStart","inputs":[{"name":"inputs","type":"bytes","internalType":"bytes"},{"name":"start","type":"uint256","internalType":"uint256"}],"outputs":[{"name":"","type":"bytes","internalType":"bytes"}],"stateMutability":"pure"}],"bytecode":{"object":"0x61022061003a600b82828239805160001a60731461002d57634e487b7160e01b600052600060045260246000fd5b30600052607381538281f3fe73000000000000000000000000000000000000000030146080604052600436106100405760003560e01c806308135910146100455780630822e62b1461006e575b600080fd5b6100586100533660046100db565b610081565b6040516100659190610153565b60405180910390f35b61005861007c3660046100db565b6100cd565b606061009082600085876101c0565b8080601f01602080910402602001604051908101604052809392919081815260200183838082843760009201919091525092979650505050505050565b6060610090838381876101c0565b6000806000604084860312156100f057600080fd5b833567ffffffffffffffff8082111561010857600080fd5b818601915086601f83011261011c57600080fd5b81358181111561012b57600080fd5b87602082850101111561013d57600080fd5b6020928301989097509590910135949350505050565b60006020808352835180602085015260005b8181101561018157858101830151858201604001528201610165565b5060006040828601015260407fffffffffffffffffffffffffffffffffffffffffffffffffffffffffffffffe0601f8301168501019250505092915050565b600080858511156101d057600080fd5b838611156101dd57600080fd5b505082019391909203915056fea2646970667358221220d3a8c8c56f640784414010e71b2988dbac5597e4ba449092d184b2e3b1bb562364736f6c63430008170033","linkReferences":{}},"methodIdentifiers":{"sliceMemoryBytesEnd(bytes,uint256)":"08135910","sliceMemoryBytesStart(bytes,uint256)":"0822e62b"},"id":55}