{"abi":[{"type":"function","name":"decodePostInputs","inputs":[{"name":"inputs","type":"bytes","internalType":"bytes"}],"outputs":[{"name":"","type":"uint256","internalType":"uint256"},{"name":"","type":"uint16","internalType":"uint16"},{"name":"","type":"bytes","internalType":"bytes"},{"name":"","type":"uint96","internalType":"uint96"},{"name":"","type":"uint96","internalType":"uint96"},{"name":"","type":"bytes[]","internalType":"bytes[]"}],"stateMutability":"pure"}],"bytecode":{"object":"0x6106f061003a600b82828239805160001a60731461002d57634e487b7160e01b600052600060045260246000fd5b30600052607381538281f3fe73000000000000000000000000000000000000000030146080604052600436106100355760003560e01c8063e9370c811461003a575b600080fd5b61004d610048366004610262565b610068565b60405161005f9695949392919061033a565b60405180910390f35b60008060608180828161007e6020828a8c6103f9565b8080601f01602080910402602001604051908101604052809392919081815260200183838082843760009201829052509394506100c5925060229150602090508b8d6103f9565b8080601f016020809104026020016040519081016040528093929190818152602001838380828437600092018290525093945061010c925060639150602290508c8e6103f9565b8080601f01602080910402602001604051908101604052809392919081815260200183838082843760009201829052509394506101539250606f9150606390508d8f6103f9565b8080601f016020809104026020016040519081016040528093929190818152602001838380828437600081840152601f19601f82011690508083019250505050505050905060008c8c606f90607b926101ae939291906103f9565b8080601f016020809104026020016040519081016040528093929190818152602001838380828437600081840152601f19601f82011690508083019250505050505050905060008d8d607b908092610208939291906103f9565b81019061021591906104a1565b9050610220866105d9565b6102298661061e565b60f01c856102368661066e565b60a01c6102428661066e565b60a01c859b509b509b509b509b509b505050505050509295509295509295565b6000806020838503121561027557600080fd5b823567ffffffffffffffff8082111561028d57600080fd5b818501915085601f8301126102a157600080fd5b8135818111156102b057600080fd5b8660208285010111156102c257600080fd5b60209290920196919550909350505050565b60008151808452602060005b828110156102fb5784810182015186820183015281016102e0565b505060006020828601015260207fffffffffffffffffffffffffffffffffffffffffffffffffffffffffffffffe0601f83011685010191505092915050565b8681526000602061ffff88168184015260c0604084015261035e60c08401886102d4565b6bffffffffffffffffffffffff87811660608601528616608085015283810360a0850152845180825282820190600581901b8301840184880160005b838110156103e6577fffffffffffffffffffffffffffffffffffffffffffffffffffffffffffffffe08684030185526103d48383516102d4565b9487019492509086019060010161039a565b50909d9c50505050505050505050505050565b6000808585111561040957600080fd5b8386111561041657600080fd5b5050820193919092039150565b7f4e487b7100000000000000000000000000000000000000000000000000000000600052604160045260246000fd5b604051601f82017fffffffffffffffffffffffffffffffffffffffffffffffffffffffffffffffe016810167ffffffffffffffff8111828210171561049957610499610423565b604052919050565b600060208083850312156104b457600080fd5b823567ffffffffffffffff808211156104cc57600080fd5b8185019150601f86601f8401126104e257600080fd5b8235828111156104f4576104f4610423565b8060051b610503868201610452565b918252848101860191868101908a84111561051d57600080fd5b87870192505b838310156105cb5782358681111561053b5760008081fd5b8701603f81018c1361054d5760008081fd5b8881013560408882111561056357610563610423565b6105928b7fffffffffffffffffffffffffffffffffffffffffffffffffffffffffffffffe08a85011601610452565b8281528e828486010111156105a75760008081fd5b828285018d83013760009281018c0192909252508352509187019190870190610523565b9a9950505050505050505050565b80516020808301519190811015610618577fffffffffffffffffffffffffffffffffffffffffffffffffffffffffffffffff8160200360031b1b821691505b50919050565b6000815160208301517fffff000000000000000000000000000000000000000000000000000000000000808216935060028310156106665780818460020360031b1b83161693505b505050919050565b6000815160208301517fffffffffffffffffffffffff00000000000000000000000000000000000000008082169350600c83101561066657600c9290920360031b82901b16169291505056fea26469706673582212202420e4788502e1a152f1b1023ce17bf7c0673804f39f3dffa44752c0bd4d13cf64736f6c63430008170033","linkReferences":{}},"methodIdentifiers":{"decodePostInputs(bytes)":"e9370c81"},"id":55}