{"abi":[{"type":"constructor","inputs":[{"name":"_idRegistry","type":"address","internalType":"address"}],"stateMutability":"nonpayable"},{"type":"function","name":"SET_DELEGATES_TYPEHASH","inputs":[],"outputs":[{"name":"","type":"bytes32","internalType":"bytes32"}],"stateMutability":"view"},{"type":"function","name":"domainSeparatorV4","inputs":[],"outputs":[{"name":"","type":"bytes32","internalType":"bytes32"}],"stateMutability":"view"},{"type":"function","name":"eip712Domain","inputs":[],"outputs":[{"name":"fields","type":"bytes1","internalType":"bytes1"},{"name":"name","type":"string","internalType":"string"},{"name":"version","type":"string","internalType":"string"},{"name":"chainId","type":"uint256","internalType":"uint256"},{"name":"verifyingContract","type":"address","internalType":"address"},{"name":"salt","type":"bytes32","internalType":"bytes32"},{"name":"extensions","type":"uint256[]","internalType":"uint256[]"}],"stateMutability":"view"},{"type":"function","name":"hashTypedDataV4","inputs":[{"name":"structHash","type":"bytes32","internalType":"bytes32"}],"outputs":[{"name":"","type":"bytes32","internalType":"bytes32"}],"stateMutability":"view"},{"type":"function","name":"idRegistry","inputs":[],"outputs":[{"name":"","type":"address","internalType":"contract IdRegistry"}],"stateMutability":"view"},{"type":"function","name":"isDelegate","inputs":[{"name":"userId","type":"uint256","internalType":"uint256"},{"name":"delegate","type":"address","internalType":"address"},{"name":"target","type":"address","internalType":"address"},{"name":"selector","type":"bytes4","internalType":"bytes4"}],"outputs":[{"name":"status","type":"bool","internalType":"bool"}],"stateMutability":"view"},{"type":"function","name":"setDelegates","inputs":[{"name":"userId","type":"uint256","internalType":"uint256"},{"name":"dels","type":"tuple[]","internalType":"struct IDelegateRegistry.Delegation[]","components":[{"name":"target","type":"address","internalType":"address"},{"name":"selector","type":"bytes4","internalType":"bytes4"},{"name":"status","type":"bool","internalType":"bool"},{"name":"delegate","type":"address","internalType":"address"}]}],"outputs":[],"stateMutability":"nonpayable"},{"type":"function","name":"setDelegatesFor","inputs":[{"name":"userId","type":"uint256","internalType":"uint256"},{"name":"dels","type":"tuple[]","internalType":"struct IDelegateRegistry.Delegation[]","components":[{"name":"target","type":"address","internalType":"address"},{"name":"selector","type":"bytes4","internalType":"bytes4"},{"name":"status","type":"bool","internalType":"bool"},{"name":"delegate","type":"address","internalType":"address"}]},{"name":"signer","type":"address","internalType":"address"},{"name":"deadline","type":"uint256","internalType":"uint256"},{"name":"sig","type":"bytes","internalType":"bytes"}],"outputs":[],"stateMutability":"nonpayable"},{"type":"event","name":"Delegations","inputs":[{"name":"sender","type":"address","indexed":false,"internalType":"address"},{"name":"userId","type":"uint256","indexed":false,"internalType":"uint256"},{"name":"","type":"tuple[]","indexed":false,"internalType":"struct IDelegateRegistry.Delegation[]","components":[{"name":"target","type":"address","internalType":"address"},{"name":"selector","type":"bytes4","internalType":"bytes4"},{"name":"status","type":"bool","internalType":"bool"},{"name":"delegate","type":"address","internalType":"address"}]}],"anonymous":false},{"type":"event","name":"EIP712DomainChanged","inputs":[],"anonymous":false},{"type":"error","name":"InvalidShortString","inputs":[]},{"type":"error","name":"InvalidSignature","inputs":[]},{"type":"error","name":"SignatureExpired","inputs":[]},{"type":"error","name":"StringTooLong","inputs":[{"name":"str","type":"string","internalType":"string"}]},{"type":"error","name":"Unauthorized_Signer_For_User","inputs":[{"name":"userId","type":"uint256","internalType":"uint256"}]}],"bytecode":{"object":"0x6101606040523480156200001257600080fd5b5060405162001a2138038062001a218339810160408190526200003591620001d9565b604080518082018252601081526f44656c6567617465526567697374727960801b602080830191909152825180840190935260018352603160f81b908301529081816200008482600062000154565b610120526200009581600162000154565b61014052815160208084019190912060e052815190820120610100524660a0526200012360e05161010051604080517f8b73c3c69bb8fe3d512ecc4cf759cc79239f7b179b0ffacaa9a75d522b39400f60208201529081019290925260608201524660808201523060a082015260009060c00160405160208183030381529060405280519060200120905090565b60805250503060c0525050600280546001600160a01b0319166001600160a01b0392909216919091179055620003f4565b600060208351101562000174576200016c836200018d565b905062000187565b81620001818482620002b2565b5060ff90505b92915050565b600080829050601f81511115620001c4578260405163305a27a960e01b8152600401620001bb91906200037e565b60405180910390fd5b8051620001d182620003cf565b179392505050565b600060208284031215620001ec57600080fd5b81516001600160a01b03811681146200020457600080fd5b9392505050565b634e487b7160e01b600052604160045260246000fd5b600181811c908216806200023657607f821691505b6020821081036200025757634e487b7160e01b600052602260045260246000fd5b50919050565b601f821115620002ad576000816000526020600020601f850160051c81016020861015620002885750805b601f850160051c820191505b81811015620002a95782815560010162000294565b5050505b505050565b81516001600160401b03811115620002ce57620002ce6200020b565b620002e681620002df845462000221565b846200025d565b602080601f8311600181146200031e5760008415620003055750858301515b600019600386901b1c1916600185901b178555620002a9565b600085815260208120601f198616915b828110156200034f578886015182559484019460019091019084016200032e565b50858210156200036e5787850151600019600388901b60f8161c191681555b5050505050600190811b01905550565b60006020808352835180602085015260005b81811015620003ae5785810183015185820160400152820162000390565b506000604082860101526040601f19601f8301168501019250505092915050565b80516020808301519190811015620002575760001960209190910360031b1b16919050565b60805160a05160c05160e0516101005161012051610140516115d26200044f60003960006109a0015260006109730152600061091b015260006108f30152600061084e01526000610878015260006108a201526115d26000f3fe608060405234801561001057600080fd5b50600436106100885760003560e01c806378e890ba1161005b57806378e890ba1461013457806384b0196e1461013c578063b4ae4c4914610157578063ff22498a146101a457600080fd5b806302479b851461008d5780630aa13b8c146100a25780634980f288146100ec5780635e1c1c9b1461010d575b600080fd5b6100a061009b3660046110cb565b6101b7565b005b6002546100c29073ffffffffffffffffffffffffffffffffffffffff1681565b60405173ffffffffffffffffffffffffffffffffffffffff90911681526020015b60405180910390f35b6100ff6100fa366004611112565b610470565b6040519081526020016100e3565b6100ff7f68bcf509d1160ba0274b6a7045e81a4b44c12d24197e9448cb88569d31c8387081565b6100ff610481565b610144610490565b6040516100e39796959493929190611199565b61019461016536600461125b565b600360209081526000948552604080862082529385528385208152918452828420909152825290205460ff1681565b60405190151581526020016100e3565b6100a06101b23660046112ac565b6104f2565b6002546040517f65269e4700000000000000000000000000000000000000000000000000000000815260048101849052339173ffffffffffffffffffffffffffffffffffffffff16906365269e4790602401602060405180830381865afa158015610226573d6000803e3d6000fd5b505050506040513d601f19601f8201168201806040525081019061024a919061136a565b73ffffffffffffffffffffffffffffffffffffffff168173ffffffffffffffffffffffffffffffffffffffff16146102b6576040517f532f88b0000000000000000000000000000000000000000000000000000000008152600481018490526024015b60405180910390fd5b60005b825181101561042f578281815181106102d4576102d461138e565b6020026020010151604001516003600086815260200190815260200160002060008584815181106103075761030761138e565b60200260200101516060015173ffffffffffffffffffffffffffffffffffffffff1673ffffffffffffffffffffffffffffffffffffffff16815260200190815260200160002060008584815181106103615761036161138e565b60200260200101516000015173ffffffffffffffffffffffffffffffffffffffff1673ffffffffffffffffffffffffffffffffffffffff16815260200190815260200160002060008584815181106103bb576103bb61138e565b6020908102919091018101518101517fffffffff0000000000000000000000000000000000000000000000000000000016825281019190915260400160002080547fffffffffffffffffffffffffffffffffffffffffffffffffffffffffffffff00169115159190911790556001016102b9565b507fbecafce3e7b11de1e2be98efa5a70df0f2bb7d10316e4822e1b2e6e342763c3081848460405161046393929190611456565b60405180910390a1505050565b600061047b826107ec565b92915050565b600061048b610834565b905090565b6000606080600080600060606104a461096c565b6104ac610999565b604080516000808252602082019092527f0f000000000000000000000000000000000000000000000000000000000000009b939a50919850469750309650945092509050565b6105358686868686868080601f0160208091040260200160405190810160405280939291908181526020018383808284376000920191909152506109c692505050565b6002546040517f65269e470000000000000000000000000000000000000000000000000000000081526004810188905273ffffffffffffffffffffffffffffffffffffffff909116906365269e4790602401602060405180830381865afa1580156105a4573d6000803e3d6000fd5b505050506040513d601f19601f820116820180604052508101906105c8919061136a565b73ffffffffffffffffffffffffffffffffffffffff168473ffffffffffffffffffffffffffffffffffffffff161461062f576040517f532f88b0000000000000000000000000000000000000000000000000000000008152600481018790526024016102ad565b60005b85518110156107a85785818151811061064d5761064d61138e565b6020026020010151604001516003600089815260200190815260200160002060008884815181106106805761068061138e565b60200260200101516060015173ffffffffffffffffffffffffffffffffffffffff1673ffffffffffffffffffffffffffffffffffffffff16815260200190815260200160002060008884815181106106da576106da61138e565b60200260200101516000015173ffffffffffffffffffffffffffffffffffffffff1673ffffffffffffffffffffffffffffffffffffffff16815260200190815260200160002060008884815181106107345761073461138e565b6020908102919091018101518101517fffffffff0000000000000000000000000000000000000000000000000000000016825281019190915260400160002080547fffffffffffffffffffffffffffffffffffffffffffffffffffffffffffffff0016911515919091179055600101610632565b507fbecafce3e7b11de1e2be98efa5a70df0f2bb7d10316e4822e1b2e6e342763c308487876040516107dc93929190611456565b60405180910390a1505050505050565b600061047b6107f9610834565b836040517f19010000000000000000000000000000000000000000000000000000000000008152600281019290925260228201526042902090565b60003073ffffffffffffffffffffffffffffffffffffffff7f00000000000000000000000000000000000000000000000000000000000000001614801561089a57507f000000000000000000000000000000000000000000000000000000000000000046145b156108c457507f000000000000000000000000000000000000000000000000000000000000000090565b61048b604080517f8b73c3c69bb8fe3d512ecc4cf759cc79239f7b179b0ffacaa9a75d522b39400f60208201527f0000000000000000000000000000000000000000000000000000000000000000918101919091527f000000000000000000000000000000000000000000000000000000000000000060608201524660808201523060a082015260009060c00160405160208183030381529060405280519060200120905090565b606061048b7f00000000000000000000000000000000000000000000000000000000000000006000610a2d565b606061048b7f00000000000000000000000000000000000000000000000000000000000000006001610a2d565b610a26610a1e7f68bcf509d1160ba0274b6a7045e81a4b44c12d24197e9448cb88569d31c83870878786604051602001610a039493929190611494565b604051602081830303815290604052805190602001206107ec565b848484610ad9565b5050505050565b606060ff8314610a4757610a4083610b5a565b905061047b565b818054610a53906114c4565b80601f0160208091040260200160405190810160405280929190818152602001828054610a7f906114c4565b8015610acc5780601f10610aa157610100808354040283529160200191610acc565b820191906000526020600020905b815481529060010190602001808311610aaf57829003601f168201915b5050505050905092915050565b81421115610b13576040517f0819bdcd00000000000000000000000000000000000000000000000000000000815260040160405180910390fd5b610b1e838583610b99565b610b54576040517f8baa579f00000000000000000000000000000000000000000000000000000000815260040160405180910390fd5b50505050565b60606000610b6783610c15565b604080516020808252818301909252919250600091906020820181803683375050509182525060208101929092525090565b6000806000610ba88585610c56565b5090925090506000816003811115610bc257610bc2611517565b148015610bfa57508573ffffffffffffffffffffffffffffffffffffffff168273ffffffffffffffffffffffffffffffffffffffff16145b80610c0b5750610c0b868686610ca3565b9695505050505050565b600060ff8216601f81111561047b576040517fb3512b0c00000000000000000000000000000000000000000000000000000000815260040160405180910390fd5b60008060008351604103610c905760208401516040850151606086015160001a610c8288828585610df0565b955095509550505050610c9c565b50508151600091506002905b9250925092565b60008060008573ffffffffffffffffffffffffffffffffffffffff168585604051602401610cd2929190611546565b604080517fffffffffffffffffffffffffffffffffffffffffffffffffffffffffffffffe08184030181529181526020820180517bffffffffffffffffffffffffffffffffffffffffffffffffffffffff167f1626ba7e0000000000000000000000000000000000000000000000000000000017905251610d539190611567565b600060405180830381855afa9150503d8060008114610d8e576040519150601f19603f3d011682016040523d82523d6000602084013e610d93565b606091505b5091509150818015610da757506020815110155b8015610c0b575080517f1626ba7e0000000000000000000000000000000000000000000000000000000090610de59083016020908101908401611583565b149695505050505050565b600080807f7fffffffffffffffffffffffffffffff5d576e7357a4501ddfe92f46681b20a0841115610e2b5750600091506003905082610ee0565b604080516000808252602082018084528a905260ff891692820192909252606081018790526080810186905260019060a0016020604051602081039080840390855afa158015610e7f573d6000803e3d6000fd5b50506040517fffffffffffffffffffffffffffffffffffffffffffffffffffffffffffffffe0015191505073ffffffffffffffffffffffffffffffffffffffff8116610ed657506000925060019150829050610ee0565b9250600091508190505b9450945094915050565b7f4e487b7100000000000000000000000000000000000000000000000000000000600052604160045260246000fd5b6040516080810167ffffffffffffffff81118282101715610f3c57610f3c610eea565b60405290565b604051601f82017fffffffffffffffffffffffffffffffffffffffffffffffffffffffffffffffe016810167ffffffffffffffff81118282101715610f8957610f89610eea565b604052919050565b73ffffffffffffffffffffffffffffffffffffffff81168114610fb357600080fd5b50565b80357fffffffff0000000000000000000000000000000000000000000000000000000081168114610fe657600080fd5b919050565b600082601f830112610ffc57600080fd5b8135602067ffffffffffffffff82111561101857611018610eea565b611026818360051b01610f42565b82815260079290921b8401810191818101908684111561104557600080fd5b8286015b848110156110c057608081890312156110625760008081fd5b61106a610f19565b813561107581610f91565b8152611082828601610fb6565b85820152604080830135801515811461109b5760008081fd5b908201526060828101356110ae81610f91565b90820152835291830191608001611049565b509695505050505050565b600080604083850312156110de57600080fd5b82359150602083013567ffffffffffffffff8111156110fc57600080fd5b61110885828601610feb565b9150509250929050565b60006020828403121561112457600080fd5b5035919050565b60005b8381101561114657818101518382015260200161112e565b50506000910152565b6000815180845261116781602086016020860161112b565b601f017fffffffffffffffffffffffffffffffffffffffffffffffffffffffffffffffe0169290920160200192915050565b7fff00000000000000000000000000000000000000000000000000000000000000881681526000602060e060208401526111d660e084018a61114f565b83810360408501526111e8818a61114f565b6060850189905273ffffffffffffffffffffffffffffffffffffffff8816608086015260a0850187905284810360c08601528551808252602080880193509091019060005b818110156112495783518352928401929184019160010161122d565b50909c9b505050505050505050505050565b6000806000806080858703121561127157600080fd5b84359350602085013561128381610f91565b9250604085013561129381610f91565b91506112a160608601610fb6565b905092959194509250565b60008060008060008060a087890312156112c557600080fd5b86359550602087013567ffffffffffffffff808211156112e457600080fd5b6112f08a838b01610feb565b96506040890135915061130282610f91565b909450606088013593506080880135908082111561131f57600080fd5b818901915089601f83011261133357600080fd5b81358181111561134257600080fd5b8a602082850101111561135457600080fd5b6020830194508093505050509295509295509295565b60006020828403121561137c57600080fd5b815161138781610f91565b9392505050565b7f4e487b7100000000000000000000000000000000000000000000000000000000600052603260045260246000fd5b60008151808452602080850194506020840160005b8381101561144b578151805173ffffffffffffffffffffffffffffffffffffffff9081168952848201517fffffffff0000000000000000000000000000000000000000000000000000000016858a01526040808301511515908a01526060918201511690880152608090960195908201906001016113d2565b509495945050505050565b73ffffffffffffffffffffffffffffffffffffffff8416815282602082015260606040820152600061148b60608301846113bd565b95945050505050565b8481528360208201526080604082015260006114b360808301856113bd565b905082606083015295945050505050565b600181811c908216806114d857607f821691505b602082108103611511577f4e487b7100000000000000000000000000000000000000000000000000000000600052602260045260246000fd5b50919050565b7f4e487b7100000000000000000000000000000000000000000000000000000000600052602160045260246000fd5b82815260406020820152600061155f604083018461114f565b949350505050565b6000825161157981846020870161112b565b9190910192915050565b60006020828403121561159557600080fd5b505191905056fea2646970667358221220461dab68422c2cf5385041e756ffdfb66a0cd4a893e74cc04859683ad581cdf664736f6c63430008170033","linkReferences":{}},"methodIdentifiers":{"SET_DELEGATES_TYPEHASH()":"5e1c1c9b","domainSeparatorV4()":"78e890ba","eip712Domain()":"84b0196e","hashTypedDataV4(bytes32)":"4980f288","idRegistry()":"0aa13b8c","isDelegate(uint256,address,address,bytes4)":"b4ae4c49","setDelegates(uint256,(address,bytes4,bool,address)[])":"02479b85","setDelegatesFor(uint256,(address,bytes4,bool,address)[],address,uint256,bytes)":"ff22498a"},"id":48}