{"abi":[{"type":"function","name":"render","inputs":[{"name":"data","type":"bytes","internalType":"bytes"}],"outputs":[{"name":"uri","type":"string","internalType":"string"}],"stateMutability":"pure"},{"type":"error","name":"StringsInsufficientHexLength","inputs":[{"name":"value","type":"uint256","internalType":"uint256"},{"name":"length","type":"uint256","internalType":"uint256"}]}],"bytecode":{"object":"0x608060405234801561001057600080fd5b50611167806100206000396000f3fe608060405234801561001057600080fd5b506004361061002b5760003560e01c8063316df61e14610030575b600080fd5b61004361003e366004610c2a565b610059565b6040516100509190610d1d565b60405180910390f35b6060600080600080858060200190518101906100759190610d6e565b60408051600480825260a08201909252949850929650909450925060009190816020015b604080516060808201835280825260208201526000918101919091528152602001906001900390816100995790505090506040518060400160405280600781526020017f636861696e4964000000000000000000000000000000000000000000000000008152508160008151811061011357610113610dd7565b60209081029190910101515261012885610388565b8160008151811061013b5761013b610dd7565b60200260200101516020018190525060018160008151811061015f5761015f610dd7565b602002602001015160400190151590811515815250506040518060400160405280600881526020017f636f6e7472616374000000000000000000000000000000000000000000000000815250816001815181106101be576101be610dd7565b6020908102919091010151526101d384610446565b816001815181106101e6576101e6610dd7565b60200260200101516020018190525060018160018151811061020a5761020a610dd7565b602002602001015160400190151590811515815250506040518060400160405280600281526020017f69640000000000000000000000000000000000000000000000000000000000008152508160028151811061026957610269610dd7565b60209081029190910101515261027e83610388565b8160028151811061029157610291610dd7565b6020026020010151602001819052506001816002815181106102b5576102b5610dd7565b602002602001015160400190151590811515815250506040518060400160405280600581526020017f68617349640000000000000000000000000000000000000000000000000000008152508160038151811061031457610314610dd7565b6020908102919091010151526103298261046f565b8160038151811061033c5761033c610dd7565b60200260200101516020018190525060018160038151811061036057610360610dd7565b602090810291909101015190151560409091015261037d816104e9565b979650505050505050565b6060600061039583610532565b600101905060008167ffffffffffffffff8111156103b5576103b5610bfb565b6040519080825280601f01601f1916602001820160405280156103df576020820181803683370190505b5090508181016020015b7fffffffffffffffffffffffffffffffffffffffffffffffffffffffffffffffff017f3031323334353637383961626364656600000000000000000000000000000000600a86061a8153600a85049450846103e957509392505050565b606061046973ffffffffffffffffffffffffffffffffffffffff83166014610614565b92915050565b606081156104b057505060408051808201909152600481527f7472756500000000000000000000000000000000000000000000000000000000602082015290565b505060408051808201909152600581527f66616c7365000000000000000000000000000000000000000000000000000000602082015290565b60606104696040518060400160405280601081526020017f6170706c69636174696f6e2f6a736f6e0000000000000000000000000000000081525061052d8461083e565b610a74565b6000807a184f03e93ff9f4daa797ed6e38ed64bf6a1f010000000000000000831061057b577a184f03e93ff9f4daa797ed6e38ed64bf6a1f010000000000000000830492506040015b6d04ee2d6d415b85acef810000000083106105a7576d04ee2d6d415b85acef8100000000830492506020015b662386f26fc1000083106105c557662386f26fc10000830492506010015b6305f5e10083106105dd576305f5e100830492506008015b61271083106105f157612710830492506004015b60648310610603576064830492506002015b600a83106104695760010192915050565b6060826000610624846002610e35565b61062f906002610e4c565b67ffffffffffffffff81111561064757610647610bfb565b6040519080825280601f01601f191660200182016040528015610671576020820181803683370190505b5090507f3000000000000000000000000000000000000000000000000000000000000000816000815181106106a8576106a8610dd7565b60200101907effffffffffffffffffffffffffffffffffffffffffffffffffffffffffffff1916908160001a9053507f78000000000000000000000000000000000000000000000000000000000000008160018151811061070b5761070b610dd7565b60200101907effffffffffffffffffffffffffffffffffffffffffffffffffffffffffffff1916908160001a9053506000610747856002610e35565b610752906001610e4c565b90505b60018111156107ef577f303132333435363738396162636465660000000000000000000000000000000083600f166010811061079357610793610dd7565b1a60f81b8282815181106107a9576107a9610dd7565b60200101907effffffffffffffffffffffffffffffffffffffffffffffffffffffffffffff1916908160001a90535060049290921c916107e881610e5f565b9050610755565b508115610836576040517fe22e27eb000000000000000000000000000000000000000000000000000000008152600481018690526024810185905260440160405180910390fd5b949350505050565b60408051808201909152600181527f7b0000000000000000000000000000000000000000000000000000000000000060208201526000805b8351811015610a4b5783818151811061089157610891610dd7565b6020026020010151602001515160000315610a43578381815181106108b8576108b8610dd7565b602002602001015160400151156109815782821561090b576040518060400160405280600181526020017f2c0000000000000000000000000000000000000000000000000000000000000081525061091c565b604051806020016040528060008152505b85838151811061092e5761092e610dd7565b60200260200101516000015186848151811061094c5761094c610dd7565b60200260200101516020015160405160200161096b9493929190610e94565b6040516020818303038152906040529250610a35565b8282156109c3576040518060400160405280600181526020017f2c000000000000000000000000000000000000000000000000000000000000008152506109d4565b604051806020016040528060008152505b8583815181106109e6576109e6610dd7565b602002602001015160000151868481518110610a0457610a04610dd7565b602002602001015160200151604051602001610a239493929190610f49565b60405160208183030381529060405292505b610a40600183610e4c565b91505b600101610876565b5081604051602001610a5d9190610ff4565b604051602081830303815290604052915050919050565b606082610a8083610aa8565b604051602001610a91929190611035565b604051602081830303815290604052905092915050565b60608151600003610ac757505060408051602081019091526000815290565b60006040518060600160405280604081526020016110f26040913990506000600384516002610af69190610e4c565b610b0091906110b6565b610b0b906004610e35565b67ffffffffffffffff811115610b2357610b23610bfb565b6040519080825280601f01601f191660200182016040528015610b4d576020820181803683370190505b509050600182016020820185865187015b80821015610bb9576003820191508151603f8160121c168501518453600184019350603f81600c1c168501518453600184019350603f8160061c168501518453600184019350603f8116850151845350600183019250610b5e565b5050600386510660018114610bd55760028114610be857610bf0565b603d6001830353603d6002830353610bf0565b603d60018303535b509195945050505050565b7f4e487b7100000000000000000000000000000000000000000000000000000000600052604160045260246000fd5b600060208284031215610c3c57600080fd5b813567ffffffffffffffff80821115610c5457600080fd5b818401915084601f830112610c6857600080fd5b813581811115610c7a57610c7a610bfb565b604051601f82017fffffffffffffffffffffffffffffffffffffffffffffffffffffffffffffffe0908116603f01168101908382118183101715610cc057610cc0610bfb565b81604052828152876020848701011115610cd957600080fd5b826020860160208301376000928101602001929092525095945050505050565b60005b83811015610d14578181015183820152602001610cfc565b50506000910152565b6020815260008251806020840152610d3c816040850160208701610cf9565b601f017fffffffffffffffffffffffffffffffffffffffffffffffffffffffffffffffe0169190910160400192915050565b60008060008060808587031215610d8457600080fd5b84519350602085015173ffffffffffffffffffffffffffffffffffffffff81168114610daf57600080fd5b6040860151606087015191945092508015158114610dcc57600080fd5b939692955090935050565b7f4e487b7100000000000000000000000000000000000000000000000000000000600052603260045260246000fd5b7f4e487b7100000000000000000000000000000000000000000000000000000000600052601160045260246000fd5b808202811582820484141761046957610469610e06565b8082018082111561046957610469610e06565b600081610e6e57610e6e610e06565b507fffffffffffffffffffffffffffffffffffffffffffffffffffffffffffffffff0190565b60008551610ea6818460208a01610cf9565b855190830190610eba818360208a01610cf9565b7f220000000000000000000000000000000000000000000000000000000000000091018181528551909190610ef6816001850160208a01610cf9565b7f223a202200000000000000000000000000000000000000000000000000000000600193909101928301528451610f34816005850160208901610cf9565b60059201918201526006019695505050505050565b60008551610f5b818460208a01610cf9565b855190830190610f6f818360208a01610cf9565b7f220000000000000000000000000000000000000000000000000000000000000091019081528451610fa8816001840160208901610cf9565b7f223a200000000000000000000000000000000000000000000000000000000000600192909101918201528351610fe6816004840160208801610cf9565b016004019695505050505050565b60008251611006818460208701610cf9565b7f7d00000000000000000000000000000000000000000000000000000000000000920191825250600101919050565b7f646174613a00000000000000000000000000000000000000000000000000000081526000835161106d816005850160208801610cf9565b7f3b6261736536342c00000000000000000000000000000000000000000000000060059184019182015283516110aa81600d840160208801610cf9565b01600d01949350505050565b6000826110ec577f4e487b7100000000000000000000000000000000000000000000000000000000600052601260045260246000fd5b50049056fe4142434445464748494a4b4c4d4e4f505152535455565758595a6162636465666768696a6b6c6d6e6f707172737475767778797a303132333435363738392b2fa26469706673582212204a45d01d9ccb5ee81085315deca057f9b9d50e26e4be39f049031c393d3606da64736f6c63430008170033","linkReferences":{}},"methodIdentifiers":{"render(bytes)":"316df61e"},"id":68}