{"abi":[{"type":"constructor","inputs":[{"name":"_idRegistry","type":"address","internalType":"address"},{"name":"_delegateRegistry","type":"address","internalType":"address"}],"stateMutability":"nonpayable"},{"type":"function","name":"access","inputs":[{"name":"userId","type":"uint256","internalType":"uint256"},{"name":"channelId","type":"bytes32","internalType":"bytes32"},{"name":"","type":"uint256","internalType":"uint256"}],"outputs":[{"name":"","type":"uint256","internalType":"uint256"}],"stateMutability":"view"},{"type":"function","name":"delegateRegistry","inputs":[],"outputs":[{"name":"","type":"address","internalType":"contract DelegateRegistry"}],"stateMutability":"view"},{"type":"function","name":"editRoles","inputs":[{"name":"target","type":"address","internalType":"address"},{"name":"userId","type":"uint256","internalType":"uint256"},{"name":"userIds","type":"uint256[]","internalType":"uint256[]"},{"name":"channelHash","type":"bytes32","internalType":"bytes32"},{"name":"roles","type":"uint8[]","internalType":"enum IRoles.Roles[]"}],"outputs":[],"stateMutability":"nonpayable"},{"type":"function","name":"getAccess","inputs":[{"name":"target","type":"address","internalType":"address"},{"name":"userId","type":"uint256","internalType":"uint256"},{"name":"channelId","type":"bytes32","internalType":"bytes32"},{"name":"","type":"uint256","internalType":"uint256"}],"outputs":[{"name":"","type":"uint256","internalType":"uint256"}],"stateMutability":"view"},{"type":"function","name":"idRegistry","inputs":[],"outputs":[{"name":"","type":"address","internalType":"contract IdRegistry"}],"stateMutability":"view"},{"type":"function","name":"initializeWithData","inputs":[{"name":"userId","type":"uint256","internalType":"uint256"},{"name":"channelHash","type":"bytes32","internalType":"bytes32"},{"name":"data","type":"bytes","internalType":"bytes"}],"outputs":[],"stateMutability":"nonpayable"},{"type":"function","name":"userRoleForChannel","inputs":[{"name":"target","type":"address","internalType":"address"},{"name":"userId","type":"uint256","internalType":"uint256"},{"name":"channelHash","type":"bytes32","internalType":"bytes32"}],"outputs":[{"name":"","type":"uint8","internalType":"enum IRoles.Roles"}],"stateMutability":"view"},{"type":"event","name":"RolesSet","inputs":[{"name":"sender","type":"address","indexed":false,"internalType":"address"},{"name":"userId","type":"uint256","indexed":false,"internalType":"uint256"},{"name":"userIds","type":"uint256[]","indexed":false,"internalType":"uint256[]"},{"name":"channelHash","type":"bytes32","indexed":false,"internalType":"bytes32"},{"name":"roles","type":"uint8[]","indexed":false,"internalType":"enum IRoles.Roles[]"}],"anonymous":false},{"type":"error","name":"Input_Length_Mismatch","inputs":[]},{"type":"error","name":"Only_Admin","inputs":[]},{"type":"error","name":"Unauthorized_Signer_For_User","inputs":[{"name":"userId","type":"uint256","internalType":"uint256"}]}],"bytecode":{"object":"0x608060405234801561001057600080fd5b50604051610eef380380610eef83398101604081905261002f9161007c565b600080546001600160a01b039384166001600160a01b031991821617909155600180549290931691161790556100af565b80516001600160a01b038116811461007757600080fd5b919050565b6000806040838503121561008f57600080fd5b61009883610060565b91506100a660208401610060565b90509250929050565b610e31806100be6000396000f3fe608060405234801561001057600080fd5b506004361061007d5760003560e01c806331559cf21161005b57806331559cf21461012d5780637b0eddcf14610142578063a222d24f14610163578063e1078c991461017657600080fd5b80630aa13b8c1461008257806313bfffac146100cc5780632d1daeb7146100ec575b600080fd5b6000546100a29073ffffffffffffffffffffffffffffffffffffffff1681565b60405173ffffffffffffffffffffffffffffffffffffffff90911681526020015b60405180910390f35b6001546100a29073ffffffffffffffffffffffffffffffffffffffff1681565b6101206100fa3660046107c8565b600260209081526000938452604080852082529284528284209052825290205460ff1681565b6040516100c39190610867565b61014061013b3660046109a2565b610189565b005b610155610150366004610a83565b6103dc565b6040519081526020016100c3565b610140610171366004610abe565b610431565b610155610184366004610b84565b610592565b600080546001546101d79173ffffffffffffffffffffffffffffffffffffffff90811691168733307f31559cf2000000000000000000000000000000000000000000000000000000006105d0565b90508151845114610214576040517fa755bb2e00000000000000000000000000000000000000000000000000000000815260040160405180910390fd5b60005b845181101561039457600273ffffffffffffffffffffffffffffffffffffffff88166000908152600260205260408120875190919088908590811061025e5761025e610bb0565b6020908102919091018101518252818101929092526040908101600090812088825290925290205460ff16600281111561029a5761029a6107fd565b10156102d2576040517f6289e17d00000000000000000000000000000000000000000000000000000000815260040160405180910390fd5b8281815181106102e4576102e4610bb0565b6020026020010151600260008973ffffffffffffffffffffffffffffffffffffffff1673ffffffffffffffffffffffffffffffffffffffff168152602001908152602001600020600087848151811061033f5761033f610bb0565b60200260200101518152602001908152602001600020600086815260200190815260200160002060006101000a81548160ff02191690836002811115610387576103876107fd565b0217905550600101610217565b507f6fed877b6bdcc2bc679758195a73ff22ca816ccdeb56213f85aea5aa3a7eb2bc81868686866040516103cc959493929190610bdf565b60405180910390a1505050505050565b73ffffffffffffffffffffffffffffffffffffffff84166000908152600260208181526040808420878552825280842086855290915282205460ff1690811115610428576104286107fd565b95945050505050565b60003390506000808380602001905181019061044d9190610cf9565b91509150805182511461048c576040517fa755bb2e00000000000000000000000000000000000000000000000000000000815260040160405180910390fd5b60005b825181101561055a578181815181106104aa576104aa610bb0565b6020026020010151600260008673ffffffffffffffffffffffffffffffffffffffff1673ffffffffffffffffffffffffffffffffffffffff168152602001908152602001600020600085848151811061050557610505610bb0565b60200260200101518152602001908152602001600020600088815260200190815260200160002060006101000a81548160ff0219169083600281111561054d5761054d6107fd565b021790555060010161048f565b507f6fed877b6bdcc2bc679758195a73ff22ca816ccdeb56213f85aea5aa3a7eb2bc83878488856040516103cc959493929190610bdf565b336000908152600260208181526040808420878552825280842086855290915282205460ff16908111156105c8576105c86107fd565b949350505050565b6040517f65269e470000000000000000000000000000000000000000000000000000000081526004810185905260009073ffffffffffffffffffffffffffffffffffffffff8816906365269e4790602401602060405180830381865afa15801561063e573d6000803e3d6000fd5b505050506040513d601f19601f820116820180604052508101906106629190610db5565b73ffffffffffffffffffffffffffffffffffffffff168473ffffffffffffffffffffffffffffffffffffffff1614610798576040517fb4ae4c490000000000000000000000000000000000000000000000000000000081526004810186905273ffffffffffffffffffffffffffffffffffffffff858116602483015284811660448301527fffffffff000000000000000000000000000000000000000000000000000000008416606483015287169063b4ae4c4990608401602060405180830381865afa158015610737573d6000803e3d6000fd5b505050506040513d601f19601f8201168201806040525081019061075b9190610dd9565b610798576040517f532f88b00000000000000000000000000000000000000000000000000000000081526004810186905260240160405180910390fd5b509195945050505050565b73ffffffffffffffffffffffffffffffffffffffff811681146107c557600080fd5b50565b6000806000606084860312156107dd57600080fd5b83356107e8816107a3565b95602085013595506040909401359392505050565b7f4e487b7100000000000000000000000000000000000000000000000000000000600052602160045260246000fd5b60038110610863577f4e487b7100000000000000000000000000000000000000000000000000000000600052602160045260246000fd5b9052565b60208101610875828461082c565b92915050565b7f4e487b7100000000000000000000000000000000000000000000000000000000600052604160045260246000fd5b604051601f82017fffffffffffffffffffffffffffffffffffffffffffffffffffffffffffffffe016810167ffffffffffffffff811182821017156108f1576108f161087b565b604052919050565b600067ffffffffffffffff8211156109135761091361087b565b5060051b60200190565b600381106107c557600080fd5b600082601f83011261093b57600080fd5b8135602061095061094b836108f9565b6108aa565b8083825260208201915060208460051b87010193508684111561097257600080fd5b602086015b8481101561099757803561098a8161091d565b8352918301918301610977565b509695505050505050565b600080600080600060a086880312156109ba57600080fd5b85356109c5816107a3565b94506020868101359450604087013567ffffffffffffffff808211156109ea57600080fd5b818901915089601f8301126109fe57600080fd5b8135610a0c61094b826108f9565b81815260059190911b8301840190848101908c831115610a2b57600080fd5b938501935b82851015610a4957843582529385019390850190610a30565b97505050606089013594506080890135925080831115610a6857600080fd5b5050610a768882890161092a565b9150509295509295909350565b60008060008060808587031215610a9957600080fd5b8435610aa4816107a3565b966020860135965060408601359560600135945092505050565b600080600060608486031215610ad357600080fd5b833592506020808501359250604085013567ffffffffffffffff80821115610afa57600080fd5b818701915087601f830112610b0e57600080fd5b813581811115610b2057610b2061087b565b610b50847fffffffffffffffffffffffffffffffffffffffffffffffffffffffffffffffe0601f840116016108aa565b91508082528884828501011115610b6657600080fd5b80848401858401376000848284010152508093505050509250925092565b600080600060608486031215610b9957600080fd5b505081359360208301359350604090920135919050565b7f4e487b7100000000000000000000000000000000000000000000000000000000600052603260045260246000fd5b600060a0820173ffffffffffffffffffffffffffffffffffffffff881683526020878185015260a0604085015281875180845260c086019150828901935060005b81811015610c3c57845183529383019391830191600101610c20565b5050606085018790528481036080860152855180825290820192508186019060005b81811015610c8157610c7185845161082c565b9383019391830191600101610c5e565b50929a9950505050505050505050565b600082601f830112610ca257600080fd5b81516020610cb261094b836108f9565b8083825260208201915060208460051b870101935086841115610cd457600080fd5b602086015b84811015610997578051610cec8161091d565b8352918301918301610cd9565b60008060408385031215610d0c57600080fd5b825167ffffffffffffffff80821115610d2457600080fd5b818501915085601f830112610d3857600080fd5b81516020610d4861094b836108f9565b82815260059290921b84018101918181019089841115610d6757600080fd5b948201945b83861015610d8557855182529482019490820190610d6c565b91880151919650909350505080821115610d9e57600080fd5b50610dab85828601610c91565b9150509250929050565b600060208284031215610dc757600080fd5b8151610dd2816107a3565b9392505050565b600060208284031215610deb57600080fd5b81518015158114610dd257600080fdfea2646970667358221220a8e160adbafeb8ea40a23bfd6b1262877620df1c20e1c8c2e746b42081083ff564736f6c63430008170033","linkReferences":{}},"methodIdentifiers":{"access(uint256,bytes32,uint256)":"e1078c99","delegateRegistry()":"13bfffac","editRoles(address,uint256,uint256[],bytes32,uint8[])":"31559cf2","getAccess(address,uint256,bytes32,uint256)":"7b0eddcf","idRegistry()":"0aa13b8c","initializeWithData(uint256,bytes32,bytes)":"a222d24f","userRoleForChannel(address,uint256,bytes32)":"2d1daeb7"},"id":67}