{"abi":[{"type":"function","name":"render","inputs":[{"name":"data","type":"bytes","internalType":"bytes"}],"outputs":[{"name":"uri","type":"string","internalType":"string"}],"stateMutability":"pure"}],"bytecode":{"object":"0x608060405234801561001057600080fd5b506101f8806100206000396000f3fe608060405234801561001057600080fd5b506004361061002b5760003560e01c8063316df61e14610030575b600080fd5b61004161003e366004610086565b90565b60405161004e9190610155565b60405180910390f35b7f4e487b7100000000000000000000000000000000000000000000000000000000600052604160045260246000fd5b60006020828403121561009857600080fd5b813567ffffffffffffffff808211156100b057600080fd5b818401915084601f8301126100c457600080fd5b8135818111156100d6576100d6610057565b604051601f82017fffffffffffffffffffffffffffffffffffffffffffffffffffffffffffffffe0908116603f0116810190838211818310171561011c5761011c610057565b8160405282815287602084870101111561013557600080fd5b826020860160208301376000928101602001929092525095945050505050565b60006020808352835180602085015260005b8181101561018357858101830151858201604001528201610167565b5060006040828601015260407fffffffffffffffffffffffffffffffffffffffffffffffffffffffffffffffe0601f830116850101925050509291505056fea2646970667358221220436f03f481f434acda90bf598252030604c6cb614ef825ebf84ec1e8c2c10d6e64736f6c63430008170033","linkReferences":{}},"methodIdentifiers":{"render(bytes)":"316df61e"},"id":69}