{"abi":[{"type":"function","name":"attest","inputs":[{"name":"signer","type":"address","internalType":"address"},{"name":"message","type":"bytes","internalType":"bytes"},{"name":"sig","type":"bytes","internalType":"bytes"},{"name":"deadline","type":"uint256","internalType":"uint256"}],"outputs":[],"stateMutability":"nonpayable"},{"type":"function","name":"attestedBy","inputs":[{"name":"","type":"address","internalType":"address"}],"outputs":[{"name":"","type":"address","internalType":"address"}],"stateMutability":"view"},{"type":"function","name":"attestorFor","inputs":[{"name":"","type":"address","internalType":"address"}],"outputs":[{"name":"","type":"address","internalType":"address"}],"stateMutability":"view"},{"type":"function","name":"revoke","inputs":[],"outputs":[],"stateMutability":"nonpayable"},{"type":"event","name":"Attest","inputs":[{"name":"sender","type":"address","indexed":true,"internalType":"address"},{"name":"attestor","type":"address","indexed":true,"internalType":"address"}],"anonymous":false},{"type":"event","name":"Revoke","inputs":[{"name":"revoker","type":"address","indexed":true,"internalType":"address"},{"name":"attestedFor","type":"address","indexed":true,"internalType":"address"}],"anonymous":false},{"type":"error","name":"Invalid_Signature","inputs":[]},{"type":"error","name":"No_Existing_Attestation","inputs":[]},{"type":"error","name":"Signature_Expired","inputs":[]}],"bytecode":{"object":"0x608060405234801561001057600080fd5b50610967806100206000396000f3fe608060405234801561001057600080fd5b506004361061004c5760003560e01c80632522e331146100515780633f138ba814610066578063afb716a6146100c5578063b6549f75146100fb575b600080fd5b61006461005f366004610791565b610103565b005b61009c61007436600461080d565b60006020819052908152604090205473ffffffffffffffffffffffffffffffffffffffff1681565b60405173ffffffffffffffffffffffffffffffffffffffff909116815260200160405180910390f35b61009c6100d336600461080d565b60016020526000908152604090205473ffffffffffffffffffffffffffffffffffffffff1681565b6100646101a9565b3361011084868486610297565b73ffffffffffffffffffffffffffffffffffffffff8082166000818152602081815260408083208054958b167fffffffffffffffffffffffff0000000000000000000000000000000000000000968716811790915580845260019092528083208054909516909317909355905133917f5f6d85712caa677459d5a5939e33536a49655d7ff18a18eeabf178ebec952b7991a35050505050565b3360008181526001602052604090205473ffffffffffffffffffffffffffffffffffffffff1680610206576040517f5d5ba30c00000000000000000000000000000000000000000000000000000000815260040160405180910390fd5b73ffffffffffffffffffffffffffffffffffffffff808316600081815260016020908152604080832080547fffffffffffffffffffffffff000000000000000000000000000000000000000090811690915594861680845291839052808320805490951690945592517fd7426110292f20fe59e73ccf52124e0f5440a756507c91c7b0a6c50e1eb1a23a9190a35050565b814211156102d1576040517f7678e7be00000000000000000000000000000000000000000000000000000000815260040160405180910390fd5b600084836040516020016102e6929190610853565b6040516020818303038152906040528051906020012090506000610337827f19457468657265756d205369676e6564204d6573736167653a0a3332000000006000908152601c91909152603c902090565b9050610344858285610382565b61037a576040517fe7ef341f00000000000000000000000000000000000000000000000000000000815260040160405180910390fd5b505050505050565b600080600061039185856103fd565b909250905060008160048111156103aa576103aa610875565b1480156103e257508573ffffffffffffffffffffffffffffffffffffffff168273ffffffffffffffffffffffffffffffffffffffff16145b806103f357506103f3868686610442565b9695505050505050565b60008082516041036104335760208301516040840151606085015160001a6104278782858561059f565b9450945050505061043b565b506000905060025b9250929050565b60008060008573ffffffffffffffffffffffffffffffffffffffff16631626ba7e60e01b86866040516024016104799291906108a4565b604080517fffffffffffffffffffffffffffffffffffffffffffffffffffffffffffffffe08184030181529181526020820180517bffffffffffffffffffffffffffffffffffffffffffffffffffffffff167fffffffff0000000000000000000000000000000000000000000000000000000090941693909317909252905161050291906108fc565b600060405180830381855afa9150503d806000811461053d576040519150601f19603f3d011682016040523d82523d6000602084013e610542565b606091505b509150915081801561055657506020815110155b80156103f3575080517f1626ba7e00000000000000000000000000000000000000000000000000000000906105949083016020908101908401610918565b149695505050505050565b6000807f7fffffffffffffffffffffffffffffff5d576e7357a4501ddfe92f46681b20a08311156105d65750600090506003610685565b6040805160008082526020820180845289905260ff881692820192909252606081018690526080810185905260019060a0016020604051602081039080840390855afa15801561062a573d6000803e3d6000fd5b50506040517fffffffffffffffffffffffffffffffffffffffffffffffffffffffffffffffe0015191505073ffffffffffffffffffffffffffffffffffffffff811661067e57600060019250925050610685565b9150600090505b94509492505050565b803573ffffffffffffffffffffffffffffffffffffffff811681146106b257600080fd5b919050565b7f4e487b7100000000000000000000000000000000000000000000000000000000600052604160045260246000fd5b600082601f8301126106f757600080fd5b813567ffffffffffffffff80821115610712576107126106b7565b604051601f83017fffffffffffffffffffffffffffffffffffffffffffffffffffffffffffffffe0908116603f01168101908282118183101715610758576107586106b7565b8160405283815286602085880101111561077157600080fd5b836020870160208301376000602085830101528094505050505092915050565b600080600080608085870312156107a757600080fd5b6107b08561068e565b9350602085013567ffffffffffffffff808211156107cd57600080fd5b6107d9888389016106e6565b945060408701359150808211156107ef57600080fd5b506107fc878288016106e6565b949793965093946060013593505050565b60006020828403121561081f57600080fd5b6108288261068e565b9392505050565b60005b8381101561084a578181015183820152602001610832565b50506000910152565b6000835161086581846020880161082f565b9190910191825250602001919050565b7f4e487b7100000000000000000000000000000000000000000000000000000000600052602160045260246000fd5b82815260406020820152600082518060408401526108c981606085016020870161082f565b601f017fffffffffffffffffffffffffffffffffffffffffffffffffffffffffffffffe016919091016060019392505050565b6000825161090e81846020870161082f565b9190910192915050565b60006020828403121561092a57600080fd5b505191905056fea26469706673582212207b466a26b633d8302c0e0615cb11a86b552d4d77b3d6310a89363116d2f2b91b64736f6c63430008170033","linkReferences":{}},"methodIdentifiers":{"attest(address,bytes,bytes,uint256)":"2522e331","attestedBy(address)":"afb716a6","attestorFor(address)":"3f138ba8","revoke()":"b6549f75"},"id":19}