{"abi":[{"type":"constructor","inputs":[{"name":"_riverOperator","type":"address","internalType":"address"}],"stateMutability":"nonpayable"},{"type":"function","name":"riverOperator","inputs":[],"outputs":[{"name":"","type":"address","internalType":"address"}],"stateMutability":"view"},{"type":"function","name":"updateOperator","inputs":[{"name":"operator","type":"address","internalType":"address"}],"outputs":[],"stateMutability":"nonpayable"},{"type":"function","name":"validate","inputs":[{"name":"id","type":"uint256","internalType":"uint256"},{"name":"status","type":"bool","internalType":"bool"}],"outputs":[],"stateMutability":"nonpayable"},{"type":"function","name":"validateBatch","inputs":[{"name":"ids","type":"uint256[]","internalType":"uint256[]"},{"name":"statuses","type":"bool[]","internalType":"bool[]"}],"outputs":[],"stateMutability":"nonpayable"},{"type":"event","name":"OperatorUpdated","inputs":[{"name":"operator","type":"address","indexed":true,"internalType":"address"}],"anonymous":false},{"type":"event","name":"Validate","inputs":[{"name":"id","type":"uint256","indexed":true,"internalType":"uint256"},{"name":"status","type":"bool","indexed":true,"internalType":"bool"}],"anonymous":false},{"type":"error","name":"Array_Length_Mismatch","inputs":[]},{"type":"error","name":"Only_Operator","inputs":[]}],"bytecode":{"object":"0x608060405234801561001057600080fd5b5060405161065e38038061065e83398101604081905261002f9161007a565b600080546001600160a01b0319166001600160a01b038316908117825560405190917fb3b3f5f64ab192e4b5fefde1f51ce9733bbdcf831951543b325aebd49cc27ec491a2506100aa565b60006020828403121561008c57600080fd5b81516001600160a01b03811681146100a357600080fd5b9392505050565b6105a5806100b96000396000f3fe608060405234801561001057600080fd5b506004361061004c5760003560e01c806397ef4e3e146100515780639980191d14610066578063ac7475ed14610079578063ae99b1de1461008c575b600080fd5b61006461005f366004610340565b6100d5565b005b6100646100743660046103e7565b610159565b6100646100873660046104e8565b61026d565b6000546100ac9073ffffffffffffffffffffffffffffffffffffffff1681565b60405173ffffffffffffffffffffffffffffffffffffffff909116815260200160405180910390f35b60005473ffffffffffffffffffffffffffffffffffffffff163314610126576040517f6c0b4c9b00000000000000000000000000000000000000000000000000000000815260040160405180910390fd5b6040518115159083907f71bb93e468ea2386aa15bb87d650c7868e6b8a888c89d0d020d4c8d6e86319e290600090a35050565b60005473ffffffffffffffffffffffffffffffffffffffff1633146101aa576040517f6c0b4c9b00000000000000000000000000000000000000000000000000000000815260040160405180910390fd5b825181146101e4576040517feb68858600000000000000000000000000000000000000000000000000000000815260040160405180910390fd5b60005b83518110156102675782828281811061020257610202610525565b90506020020160208101906102179190610554565b151584828151811061022b5761022b610525565b60200260200101517f71bb93e468ea2386aa15bb87d650c7868e6b8a888c89d0d020d4c8d6e86319e260405160405180910390a36001016101e7565b50505050565b60005473ffffffffffffffffffffffffffffffffffffffff1633146102be576040517f6c0b4c9b00000000000000000000000000000000000000000000000000000000815260040160405180910390fd5b600080547fffffffffffffffffffffffff00000000000000000000000000000000000000001673ffffffffffffffffffffffffffffffffffffffff8316908117825560405190917fb3b3f5f64ab192e4b5fefde1f51ce9733bbdcf831951543b325aebd49cc27ec491a250565b8035801515811461033b57600080fd5b919050565b6000806040838503121561035357600080fd5b823591506103636020840161032b565b90509250929050565b7f4e487b7100000000000000000000000000000000000000000000000000000000600052604160045260246000fd5b60008083601f8401126103ad57600080fd5b50813567ffffffffffffffff8111156103c557600080fd5b6020830191508360208260051b85010111156103e057600080fd5b9250929050565b6000806000604084860312156103fc57600080fd5b833567ffffffffffffffff8082111561041457600080fd5b818601915086601f83011261042857600080fd5b813560208282111561043c5761043c61036c565b8160051b6040517fffffffffffffffffffffffffffffffffffffffffffffffffffffffffffffffe0603f8301168101818110868211171561047f5761047f61036c565b6040529283528481018201928281018b85111561049b57600080fd5b958301955b848710156104b757863581529583019583016104a0565b50975050870135925050808211156104ce57600080fd5b506104db8682870161039b565b9497909650939450505050565b6000602082840312156104fa57600080fd5b813573ffffffffffffffffffffffffffffffffffffffff8116811461051e57600080fd5b9392505050565b7f4e487b7100000000000000000000000000000000000000000000000000000000600052603260045260246000fd5b60006020828403121561056657600080fd5b61051e8261032b56fea2646970667358221220c0938ac60b8a11d3805426d88e5db590d3b48c419cfc02813f64312eec60a68464736f6c63430008170033","linkReferences":{}},"methodIdentifiers":{"riverOperator()":"ae99b1de","updateOperator(address)":"ac7475ed","validate(uint256,bool)":"97ef4e3e","validateBatch(uint256[],bool[])":"9980191d"},"id":40}